:10040000000082310D2A08007E14823120007F080E
:10041000F0007008FF007E10090082310F2AFC01F5
:10042000A0308400003085001930FE000030FF004D
:1004300089316421823120308400023085004030CF
:10044000FE000030FF00893164218231A030840039
:10045000023085004030FE000030FF008931642109
:1004600082312030840089308500C630860000301B
:1004700087000030FF000730893158218231EC308D
:10048000840089308500CB30860001308700003041
:10049000FF001530893158217E1020008F31342F14
:1004A0002000D101210047082000E501E5072100D7
:1004B00046082000E401E407640886006508870018
:1004C00041310108063A031D412B64088600650886
:1004D00087000108803A031D412B640886006508E7
:1004E00087004231403FC700413FC8004808C9006B
:1004F0004908E10064088600650887004231010868
:10050000C7004708E2006108013A031DA32A4330EF
:10051000B8009030B9004330840090308500000866
:10052000C700C8014708BA004808BB006408860035
:10053000650887004631403FBC00413FBD008D311A
:1005400076258231A12D20006108023A031DDA2AA6
:1005500062080319AF2A893138218231A12D200088
:100560006235CB3E86008701403FD400413FD50035
:100570005508B901B9075408B801B8075508C800AB
:100580005408C70002304707840048080318480A87
:100590008500003FBA00013FBB0064088600650883
:1005A00087004631403FBC00413FBD008D3176257C
:1005B0008231A12D20006108033A031D0E2B5A3011
:1005C000C7004708F10062088931D72182317208DB
:1005D0002000D701D7077108D601D607D71FF42A04
:1005E000893138218231A12D20005B08B901B9077A
:1005F0005A08B801B8075708BB01BB075608BA012B
:10060000BA0764088600650887004631403FBC0091
:10061000413FBD008D3176258231A12D2000650836
:10062000F201F2076408F101F1075330C7004708EF
:10063000F30089311421823172082000D901D907D1
:100640007108D801D807D91F292B89313821823167
:10065000A12D20005308B8000030B9005908BB0193
:10066000BB075808BA01BA07640886006508870006
:100670004631403FBC00413FBD008D31762582317F
:10068000A12D20006408860065088700413101081B
:10069000053A031D5D2B2100AB01AB0A2000640865
:1006A00086006508870042310108C700470821001D
:1006B000AA00893127218231A12D200064088600FB
:1006C0006508870041310108093A031D812B640840
:1006D00086006508870042310108C7004708DC0032
:1006E0005C088731FF2782318531A4258231893129
:1006F0002721823120005C08C70047082100B8008C
:10070000A12D20006408860065088700413101089A
:10071000083A031DA02BB830B8000030B9000130F2
:10072000BA000030BB0064088600650887004631C7
:10073000403FBC00413FBD008D3176258231A12D67
:100740002000640886006508870041318108031D88
:10075000372C640886006508870001081F390038B7
:10076000031DD12B89311121823172082000CB0168
:10077000CB077108CA01CA074A30B8000030B90077
:100780000230BA000030BB006408860065088700AC
:100790004631403FBC00413FBD008D31762582315E
:1007A000A12D2000640886006508870001081F3914
:1007B000023A031D332C6408860065088700443123
:1007C00001080F39C7004708DD0003305D02031838
:1007D0002F2C0730C7004708F1005D0889319121AF
:1007E0008231063ECB3E86000130870001082000A2
:1007F000C8004808DE0064088600650887004431A8
:10080000403FC700413FC800C71B092C5E080139A3
:100810000B2C5E080239C700C8014708CF00480802
:10082000D00050084F040030031D0130C7004708B6
:10083000CC00CD014C30B8000030B9000230BA0015
:100840000030BB0064088600650887004631403FE1
:10085000BC00413FBD008D3176258231A12D89310B
:1008600038218231A12D893138218231A12D2000FA
:100870006408860065088700413101080B3A031DB2
:10088000612C640886006508870042310108C700B2
:100890004708F100640886006508870044310108B4
:1008A00089310C2182312000C8004808CE00CE1FBB
:1008B0005D2C893138218231A12D89312721823166
:1008C000A12D2000640886006508870041310108D9
:1008D0000A3A031D942C6408860065088700443199
:1008E000010889310A2182312000C7004708DF0052
:1008F000DF1F7E2C893138218231A12D5F3020000D
:10090000B8000030B9000130BA000030BB00640804
:100910008600650887004631403FBC00413FBD006E
:100920008D3176258231A12D20006408860065086E
:10093000870041310108013A0319A72C6408860099
:100940006508870041310108033A031D9F2DD2013C
:10095000D20A640886006508870001081F39023A38
:10096000031D942D64088600650887004231160037
:100970000104031D942D6408860065088700443136
:1009800001080F39C7004708E300640886006508BE
:100990008700443101088039C7004708E000033070
:1009A00063020318942D64088600650887004131AE
:1009B0000108033A031DEA2C60080319E42C6308BC
:1009C0008A311A2282317B2D200063088A31342239
:1009D00082317B2D2000600803192D2D0730C700C0
:1009E0004708F1006308893191218231053ECB3EF1
:1009F00086000130870001082000C8006335C90067
:100A00000130C935FF3E031D012D4935053E203E0D
:100A100086008701480881006335C7000130C7356B
:100A2000FF3E031D0F2D4735043E203E8600870103
:100A30008101F730C7000730C8004808F10063089B
:100A4000893191218231063ECB3E860001308700FC
:100A5000200047088105FD306A2D0730C700470890
:100A6000F1006308893191218231043ECB3E86003A
:100A70000130870001082000C8006335C90001303B
:100A8000C935FF3E031D402D4935013E203E8600FD
:100A90008701480881008830C7006335C8000130ED
:100AA000C835FF3E031D502D4835203E8600870186
:100AB000470881000730C7004708F1006308893103
:100AC00091218231063ECB3E860001308700011520
:100AD000FE302000C7000730C8004808F100630856
:100AE000893191218231063ECB3E8600013087005C
:100AF00020004708810520006408860065088700FB
:100B000041310108033A003003190130C70047089A
:100B1000F1006408860065088700443101088231CD
:100B2000032282312000D201D208031D9B2D89317E
:100B300027218231A12D893138218231A12DD10186
:100B4000D1032000510808003D000E172100CA0102
:100B50002000C601033046020318C82D0430F900F6
:100B60000730FA007A08F100460889319121853171
:100B7000063ECB3E860001308700790881000130B7
:100B8000F90079082000C60703304602031CAE2D89
:100B90002030F1000030F2000030F3000030F400AB
:100BA0001830F5000030F6008A314E2285312100E0
:100BB0004708F801F8074608F701F7078B311223B9
:100BC000853178082000A301A3077708A201A207B6
:100BD0000830F9007908A1008030F9007908A000F8
:100BE00021004908F801F8074808F701F7078B3199
:100BF0001223853178082000A701A7077708A601EE
:100C0000A6070830F9007908A500A401C601C60AA4
:100C1000033046020318B52E0730F9007908F100B9
:100C20004608893191218531CB3E8600013087000D
:100C3000403FF700413FF8008B31122385312000FF
:100C40004635FA000130FA35FF3E031D232E7A3572
:100C5000023E203E860087017708C03F7808C13FEA
:100C60000730F9007908F100460889319121853172
:100C7000043ECB3E8600013087000108FA002000C8
:100C80004635FB000130FB35FF3E031D432E7B350F
:100C9000013E203E860087017A0881008830F900F5
:100CA0004635FA000130FA35FF3E031D532E7A35E2
:100CB000203E86008701790881000730F900790815
:100CC000F1004608893191218531023ECB3E8600F4
:100CD00001308700403FF700413FF8008B3112237D
:100CE000853120004635FA000130FA35FF3E031DFC
:100CF000752E7A35063E203E860087017708C03F74
:100D00007808C13F0730F9007908F10046088931B9
:100D100091218531053ECB3E8600013087000108D8
:100D2000FA0020004635FB000130FB35FF3E031D75
:100D3000952E7B35053E203E860087017A0881008E
:100D40004635F9000130F935FF3E031DA32E7935F4
:100D5000043E203E8600870181010130F9007908B8
:100D6000C60703304602031C0C2E3D000E1308007C
:100D70003D00101CC32E8931062186318B31BD23E5
:100D800086313D001010901E052F01302100BC005F
:100D90000030BD003D08803A2000EA0080306A0241
:100DA000031DD52E033021003C020318032F983079
:100DB0002000EA000E30EB0021003C0820006A070A
:100DC000EC0021003D0820006B3DED006C08210087
:100DD000B90020006D082100BA00390886003A08E1
:100DE000870001100130BC070030BD3D3D08803A4E
:100DF0002000EA0080306A02031D012F0330210029
:100E00003C02031CD72E3D009012901DBA2F0F0CF0
:100E10002000EA00EA0C6A0C0F390038031D372F56
:100E20003D000F19372F2000200C890C0F39EA00E4
:100E30006A082100BB003B080D3A031D232F8B31AC
:100E40005F238631332F21003B08093A0319332FE2
:100E50003B08013A031D302F8C31F9248631332FA2
:100E60008931382186318731F5278631B82F3D0009
:100E70000F0C2000EA00EA0C6A0C0F390038031D41
:100E8000482F3D000F1D482F8E3104268631B82F84
:100E90003D000F0C2000EA00EA0C6A0C0F39003A02
:100EA0000319B82F3D000F0C2000EA00EA0C6A0C71
:100EB0000F39EB0003306B020318B82F3D000F1DF4
:100EC0008D2F07302000EA006A08F1003D000F0C6A
:100ED0002000EB00EB0C6B0C0F398931912186312E
:100EE000063ECB3E860001308700811C822F3D00EC
:100EF0000F0C2000EA00EA0C6A0C0F398731C62774
:100F00008631B82F3D000F0C2000EA00EA0C6A0C75
:100F10000F39893103218631B82F07302000EA00CC
:100F20006A08F1003D000F0C2000EB00EB0C6B0C8D
:100F30000F39893191218631063ECB3E8600013042
:100F40008700011CAE2F3D000F0C2000EA00EA0CC8
:100F50006A0C0F398A3188228631B82F3D000F0C78
:100F60002000EA00EA0C6A0C0F398931042186312D
:100F70003D009011101FC12F8931052186313D00A0
:100F800010132000121D080012110800F80007308D
:100F9000F5007508F1007808893191218731053E07
:100FA000CB3E8600013087000108F6007835F70057
:100FB0000130F735FF3E031DD92F7735053E203E22
:100FC00086008701760881008430F5007835F600C8
:100FD0000130F635FF3E031DE92F7635043E203EF5
:100FE000860087017508810008000830F10071084B
:100FF0002000A1008030F1007108A0000800080066
:1012060008000800080008000800FF300800003049
:10121600080000300800210038080800F101F2013A
:101226000800FF30F100FF30F20008000830F1003E
:1012360071082000A500A4010800803420348834F9
:1012460020340034003490342000A401A501C830B5
:10125600F1007108A40008002100A601A701AE0153
:10126600A201A301A401A50108000830F10071083C
:101276002000A5008430F1007108A40008002000B9
:101286005808CE01CE075708CD01CD078E319526D9
:101296000800F20803190800B130F4007408F100E0
:1012A60021003008893107210800FE0012001E00C7
:1012B6000130FE020030FF3B7F087E040319003434
:1012C60059296400800101310130FE020030FF3BE4
:1012D6007F087E04031900346529F6000730F500FF
:1012E6007508F100760889319121063ECB3E8600CD
:1012F6000130870001080239080021008E160E12FF
:10130600243023009E0090309D0000309C00673002
:101316009B009C0108309F0019080800F400F301A7
:10132600741C99297108F2007208F3070310F10D75
:101336000310F40CF408031D932973080800F20047
:101346007235F1000130F135FF3E031DA6297135D6
:10135600043E203E86008701010D010D013908007B
:10136600F8000730F7007708F100780889319121F5
:10137600023ECB3E860001308700403FF500413FEC
:10138600F6000800F2007235F1000130F135FF3E3B
:10139600031DC9297135203E860087010310811F70
:1013A60003140030093D0800F400F408031DE72982
:1013B6007108860087015530C03F9030C13F043028
:1013C600F1000030F2000800FF30F100FF30F200BB
:1013D6000800003400340034003400340034003493
:1013E600903420349134203401340A3400349B3450
:1013F6002034DB342034403440340034F700893163
:101406002F2174082100A501A5077308A401A407CC
:101416007708F6007608AE007208A301A3077108E4
:10142600A201A2077508F6007608FC000800FA007B
:101436007A080319080003307A02031808000730F7
:10144600F9007908F1007A08893191218A31063E3E
:10145600CB3E86000130870081147A088731C62783
:101466000800F60076080319080003307602031810
:1014760008000730F5007508F100760889319121DA
:101486008A31063ECB3E860001308700011476087D
:101496008A31882208007208F801F8077108F701F6
:1014A600F7070130F5020030F63BFF307606031DE4
:1014B6005E2AFF307506031908007708860078084B
:1014C6008700730881000130F7070030F83D542A81
:1014D600F501F601711C732A7308F5077408F63DC9
:1014E6000130F335F40D890B742A0130F236F10C14
:1014F600890B792A72087104031D6D2A7608F20198
:10150600F2077508F101F1070800F3007335F100E1
:101516000130F135FF3E031D8C2A7135013E203E18
:101526008600870181018430F1007335F2000130B5
:10153600F235FF3E031D9B2A7235203E8600870149
:10154600710881000800F7000730F6007608F10000
:101556007708893191218A31CB3E86000130870098
:10156600750884008501403F803F413F813F7735C4
:10157600F6000130F635FF3E031DBD2A7635013EE5
:10158600203E86008701010808002000CC004A089A
:101596002100A501A507200049082100A401A407F0
:1015A60020004B08FB007B08FC004C08B80000300C
:1015B600B9004808BB01BB074708BA01BA07480883
:1015C600BD01BD074708BC01BC078D317625080063
:1015D6000030893170218A310038031D080000303F
:1015E6002100CA190130F9007908FA002000A40187
:1015F6007A080319042B7708F9007908A500C83082
:10160600092B7708F9007908A5008830F9007908D0
:10161600A4000830F90079082100CA0608007808F5
:101626002000C501C5077708C401C407203045025C
:10163600003003194402031C272B4508F801F8075C
:101646004408F701F70708004508B8003808C20043
:101656004408B8003808C30043088039B800B90107
:101666004208BA00BB01BA35BB0D38083A07BC00C0
:1016760039083B3DBD003D083C040030031D0130E8
:10168600BE00BF013E08F1003F08F2005030F300F3
:101696000030F4008A316B22200043087F3971073D
:1016A600C00072080318720AC1004008E03EF70045
:1016B6001F30413DF8000800210047082000E901DD
:1016C600E907210046082000E801E80768088600C7
:1016D600690887000030811B01302100AD00893187
:1016E60019218B312000A41F7D2B0830E6006608E7
:1016F600A500A4012100230822040319952B25081F
:1017060024040319922BF2017C082000E6006608E7
:10171600F300210025088A0024080A008B3189314C
:101726002F218B3120006808860069088700010E8A
:10173600890C03390038031DA92B823150228B31C5
:101746002000E6006608E700E71FBA2B6908D80103
:10175600D8076808D701D707893142218B31200085
:10176600E6006608E700E71FBA2B893138213D00FD
:101776000E1208003D0011109110920197018E156E
:101786001116111590119011901190119001983029
:10179600F1000E30F2000030F3000030F40010309B
:1017A600F5000030F6008A314E228B313D001816C6
:1017B60098111815981418102000C901C90A033089
:1017C60049020318112C4908983EC700C8010E307B
:1017D600C83D4708CA004808CB004A0886004B089F
:1017E600870001164A0886004B08870081154A08BB
:1017F60086004B08870001154A0886004B088700BB
:1018060081144A0886004B08870001100130C70082
:101816004708C90703304902031CE62B3D00960121
:101826002100AB01B8018531A4258B3189312F21E7
:1018360008002000B900210038080319080020001C
:101846003908893170218C31003803192C2C21007C
:10185600080020003935F9000130F935FF3E031D37
:10186600302C7935043E203EFA007A08BA0007305B
:10187600F9007908F1003908893191218C31063E49
:10188600CB3E860001308700003081190130FA0016
:101896007A082000B8003A088600870181013808D6
:1018A60003195E2C7708F9003A0A86008701790841
:1018B6008100C830662C7708F9003A0A860087014D
:1018C600790881008830F9003A088600870179088E
:1018D60081000830F9000730FA007A08F10039086B
:1018E60089319121063ECB3E86000130870079087A
:1018F600810621000800F9000730F5007508F1009F
:101906007908893191218C31063ECB3E8600013023
:101916008700003001190130F6007608F8007808D3
:101926000319BC2C0730F5007508F10079088931D8
:1019360091218C31043ECB3E8600013087000108A0
:10194600F6007935F7000130F735FF3E031DA72C69
:101956007735013E203E8600870176088100C83033
:10196600F5007935F6000130F635FF3E031DB72C3C
:10197600E22C0730F5007508F100790889319121CC
:101986008C31043ECB3E8600013087000108F6000C
:101996007935F7000130F735FF3E031DCE2C77353C
:1019A600013E203E86008701760881008830F500DA
:1019B6007935F6000130F635FF3E031DDE2C76350F
:1019C600203E86008701750881000430F500073047
:1019D600F6007608F100790889319121063ECB3E62
:1019E600860001308700750881060800200021085E
:1019F600F5007508F90021002D08013A031D152D83
:101A0600250824040319122DF201F20A7C08F500B8
:101A16007508F30025088A0024080A008D318931EB
:101A26002F21080021002E08031908007908F50067
:101A3600F60123087602031D222D22087502031CD7
:101A46002B2D2308F801F8072208F701F707322D96
:101A56007908F500F6017508F7007608F8007708AA
:101A6600F5007508FA002E08860087012100460851
:101A76008400470885007A30F50012001E00F50B39
:101A8600402D7A08F50075082100AE077A08F500A2
:101A9600F6017508A2027608A33B08307902031CFA
:101AA600582D23082204031D080079087A0203181A
:101AB600722D893138218C3121002508240403191F
:101AC6006E2DF2017C08F5007508F30025088A00E2
:101AD60024080A008D3189312F212100080089311F
:101AE600272121000800003020003B02083003199E
:101AF6003A02031C832D0830C0000030C100892D36
:101B06003B08C101C1073A08C001C0074008BE0032
:101B16003E08C6004608BE00BF013D083F02031D41
:101B2600962D3C083E02031C9F2D3D08C301C307AA
:101B36003C08C201C207A62D4608BE00BF013E08EA
:101B4600C2003F08C3004208BE003E08C6003D086A
:101B56003B02031DB02D3C083A020030031C013045
:101B6600BE003E082100AF004808860049088700ED
:101B7600200038088400390885004630BE0012006F
:101B86001E00BE0BC22D20004608BE00BF013E0847
:101B960038072100A60020003F08393D2100A70094
:101BA60020003B083D02031DDA2D3A083C02031CC7
:101BB600E12D3B08C501C5073A08E52D3D08C501DD
:101BC600C5073C08C401C4074608BE00BF01BE09DC
:101BD600BF09BE0A0319BF0A44083E072100A20036
:101BE600200045083F3D2100A300CA1520004608F5
:101BF600BE00BF013E08F7003F08F8008A31EB221D
:101C0600080021002B0803190D2E2A083D00960016
:101C16002100AB012308220403196D2E0030230294
:101C2600083003192202031C1E2E08302000BA00B9
:101C36000030BB00282E210023082000BB01BB0773
:101C4600210022082000BA01BA073A08B80038086D
:101C5600BC002100480886004908870021002608A4
:101C660084002708850020003C30B80012001E00C2
:101C7600B80B392E20003C08B800B90138082100FD
:101C8600A202200039082100A33B20003C08B8002E
:101C9600B90138082100A607200039082100A73D10
:101CA60023082204031D622E20003C08083A031D67
:101CB600622E21002F080319622EAC01AC0A200007
:101CC6003C08B800B9013808F7003908F8008A312D
:101CD600EB22080021002C0803197D2E0030F700A6
:101CE6000030F8008A31EB228E312100AC018931B7
:101CF6002F2108002100AD08031D08002508240433
:101D06000319922EF201F20A7C082000B800380866
:101D1600F300210025088A0024080A008E31893143
:101D26002F21080020004D0886004E088700443108
:101D36000108CF004F08D6004D0886004E088700E0
:101D460041310108203A031DE32E4D0886004E0856
:101D560087000108213A031DE32E5608CF004F08DD
:101D66002100B00020004D0886004E08870046314D
:101D7600403FCF00413FD0000030500207300319EA
:101D86004F02031CCA2E0730D2000030D22E4D0857
:101D960086004E0887004631403FD200413FD300BF
:101DA6005308F201F2075208F101F1074C30F30033
:101DB6000930F400F501B1308A3101220030080003
:101DC60020004D0886004E08870041310108213A5F
:101DD600031D322F4D0886004E0887000108A13AE0
:101DE600031D322FB130CF004F08F100560889315C
:101DF60008218E312000D0005008D100D11F052FB8
:101E0600FF3008004D0886004E0887004631403FE7
:101E1600CF00413FD00000305002073003194F0277
:101E2600031C192F0730D4000030212F4D088600DF
:101E36004E0887004631403FD400413FD500550843
:101E4600C801C8075408C701C7070030C9000030D9
:101E5600CA00CB01B1308A31C82200300800FF30F9
:101E660008002100C501893180218F312100A90197
:101E7600A001A1018B31BD238F318631B8268F3168
:101E860089310E218F3100380319402F2000911E11
:101E9600662F3F30210029020318662F23009D1C60
:101EA600552F1D1219082100BE002908A03E8600E4
:101EB600023087003E08810023001D1601302100F4
:101EC600BE003E08A907210045080319882F2300F4
:101ED6009E186F2F2100882F21002808203E86009B
:101EE60002308700010823009A0001302100BE005D
:101EF6003E08A8072808BE00BF0121083F06031DAB
:101F0600862F20083E060319C5010230893170214B
:101F16008F310038031D402F02308931A2218F31C5
:101F2600003A031D402F210029080319C22F023051
:101F36008931B3218F3176082100C201C2077508A5
:101F4600C101C1074108860042088700A03084000D
:101F56000230850021002930BE0012001E00BE0B93
:101F6600B02F21002908BE00BF013E08F7003F0838
:101F7600F80002308C311C248F312100A90145085C
:101F8600031D402F02308931C5218F3100380319D6
:101F9600402FC3302100BE003E08F50002308A31D2
:101FA600A6228F312100BF00C0013F08A0004008D3
:101FB600A100210820040319FB2F203086000230DF
:101FC6008700210043088400440885002108BF00DB
:101FD6002008BE0012001E000130BE020030BF3BCA
:101FE6003F083E04031DED2F2100C501C50AA801C7
:101FF60002308C317E248F31402F09340234433431
:102006000034023401340034803432340934043468
:102016000034003401340234023400340034053410
:1020260024340034103401340434243402340034AB
:1020360005342434063400340134053424340134A0
:102046000034013407340534813403340A3400344F
:102056000134093404340134003402340A340034BF
:10206600003400340734053402340234403400347A
:1020760000340734053482340234403400340034EA
:10208600123401340034023402340034003408348B
:10209600D83404340A3400340034013400340034B3
:0C20A600003401340434033409340434E1
:00000001FF
