:020000040000FA
:040000000EEF00F00F
:0400080045EF00F0D0
:0800180062EF00F00F01F26A33
:100020009D6A9E6AC26AC16AC06A5D6B5C6B5F6BE7
:100030005E6B896A8994926A0ED854D85FD889D940
:10004000A6D9B2D9D08EF28CF28E1AD888D8F6D82A
:10005000F2B482D9FAD7939C938EA58AA598080EFC
:10006000B96E000E7C6E1F0E7B6E650EBA6EA39A83
:10007000800EA66EA6887A507A507A50A38A120013
:10008000A6B2F5D7A6B4F3D7120004507ACFE3FF97
:100090000650090A03E1056889821100055006E04F
:1000A0000450E3500D0A01E1056A11000450042ACE
:1000B000E3500D0A05E1062A0650030801E289848F
:1000C00089921100D8CF01F0026E0750DB50072A49
:1000D000796E0D0A03E10A0601E1A398025001C0FE
:1000E000D8FF100011EE80F022EE80F0036A046A5F
:1000F000056A076A086A066A0A6A1200936A9386A2
:10010000800E6F6E6E50800BFDE00E01F86BF96B88
:10011000FA6BFB6BFC6BFD6B0E01E06BE26BE36B50
:10012000E46BE66BE76B080EE16FE56F0E01E86BC1
:10013000EC6BF06BF46BE96BED6BF16BF56B0E0137
:10014000070E436FBC0E446F010E456F0F01708A9E
:10015000606A306B6F6A6E50C00BFDE112006F6A0F
:1001600060BE04D00A0E6F6E30AF12000A50090A4A
:1001700003E18980609E120062B61ED0740E65BCD9
:10018000720E096E085009C0DBFF082A6150E00BAF
:10019000E846E846E8469EEC01F061501F0BE84651
:1001A000E846E8460C6E6250E00BE846E846E84652
:1001B0000C109AEC01F026D0540E65BC520E096E5C
:1001C000085009C0DBFF082A6150F80BE842E842FA
:1001D000E8429AEC01F06150070BE842E842E8423D
:1001E0000C6E6250E00BE842E842E8420C126250AA
:1001F000030B0C109AEC01F063509AEC01F0645080
:100200009AEC01F065500F0B0D6E3009096E085025
:1002100009C0DBFF082A0D5006E00FEE66F0EE5035
:1002200089D80D2EFCD70D0E096E085009C0DBFFD2
:10023000082A0A2AA3888990609E1200065001E1CC
:100240001200080E6F6E20A708D0060E6F6E10A762
:1002500004D0040E6F6E00B712000350E350032A5F
:100260000B6E740A0AE00B50720A07E00B50540A36
:100270001AE00B50520A17E045D053D8070BE8425A
:10028000E842E842616E00EE0CF045D80C50F80BE5
:10029000E842E842E84261120C50070BE842E842AB
:1002A000E842626E22D000EE0CF035D80C501F0BE5
:1002B000E846E846E846616E00EE0CF02CD80C509B
:1002C000E00BE846E846E84661120C501C0BE84695
:1002D000E846E846626E0C50030B621262860FEE2F
:1002E00063F019D80FEE64F016D8656A0BB2658C0E
:1002F00018D807E00D6E65120FEE66F00CD80D2EC3
:10030000FDD760860350E350032A0D0AFBE1060681
:1003100001E18994120005D8EF6EEF3A02D8EE128F
:1003200012000350E350032A0E6E0F0B0EAC1200A6
:10033000090F12000E6E0E3801D80E500F0B060F6B
:10034000D8B2070F2A0F096E085009C0DBFF082A30
:100350001200C40ED56E1200F2940F3E1200102A45
:10036000070E1016010E1064C5EF01F0020E1064A6
:10037000C3EF01F0030E1064C5EF01F0040E10642A
:10038000C3EF01F0120089961200898612003F0E19
:10039000C716270EC86EC66AC56AC79EC78C9486E4
:1003A0009488280EC612120092502F09926E9380E4
:1003B0009382226A236A246A256A100E216E116ACA
:0803C000120080508150120070
:020000040030CA
:040000001412692845
:020005008181F7
:060008000FC00FE00F40E5
:00000001FF
