:0400000080315928CA
:100008007E14803120007F08F1008B1A0B1D5428C4
:100018000B11D0309500220020308C064A2822008F
:100028008E140130F0007008FB001030F0007008EA
:10003800F900542822000E140230442822000E1021
:100048000330442822000E150430442822000E11E3
:100058000530442822008E100630442841280030FC
:1000680020000C190130FA0022000E100830442834
:100078007908031948280130F90222000E140730C4
:10008800F0007008FB005428FB0154287B0884000A
:10009800093004020318482880310435793E82006B
:1000A80071082000FF007E10090080315B28F901EB
:1000B800FA01FB0120308400003085004430813192
:1000C8009C2180318131A8218031F5008131A9211D
:1000D8008031F6008131AA218031F7008131AB21CE
:1000E800F8007E10200081312529803113288031C5
:1000F8001E28803122288031262880312A28803104
:0E0108002E28803132288031332880313C2867
:100200005434303430343334353432343734313498
:1002100031343834303430343034303430343034B5
:1002200030343034303430343034303430343034AE
:10023000303430340D3400340034203444346134EC
:10024000743461343A3420340034F301F4018131E0
:100250006621813181314A21813181317A21813197
:100260008131A22181318131892181312000C20176
:10027000C301A001A1018B17FB0174087304031DC6
:10028000452955308131952181310130F307003006
:10029000F43D3D29F0302100990023008C018E01AE
:1002A00021009D019E019F01220091019201930175
:1002B000940121008C128E12200091111110111145
:1002C0002100111191150B178B17080055303C00B8
:1002D0008F00AA308F008F01A40114303D009100DF
:1002E0000C30940055303C008F00AA308F00013054
:1002F0008F00080023001E171E149E161E121E15C6
:100300009D171D131D169F1110309B002000911288
:1003100008002100951295111508F839023895004A
:10032000D030200095008B160800F20023009E1CA0
:10033000962972089A000800640080010131890B37
:100340009D29003421008E100E110E100C1508008E
:08035000003481341D348134B6
:020000040001F9
:04000E00E4FFFFFE0E
:00000001FF
