:08000000803102288731FC2F3A
:100F8A008731E02787318731D227873122008C16B3
:100F9A008C168C168C168C12CB2F303020009800B1
:100FAA00991397019601023025009300FF309200B1
:100FBA00FF3091000800F8302100990023008C01CD
:100FCA008E0121009D019E019F0122009101920143
:100FDA009301940121008C128E122000911111109C
:100FEA0011112100111191150B178B1708007E1092
:060FFA0020008731C52F25
:020000040001F9
:04000E00E4FFFFFE0E
:00000001FF
