:020000040000FA
:040000000EEF00F00F
:040008005EEF00F0B7
:080018007BEF00F00F01F26A1A
:10002000A36AA46A000E076EC26AC16AC06A5D6BE9
:100030005C6B5F6B5E6B8B6A949489688994926A3F
:100040009490949244EC00F08BEC00F0D0EC00F033
:1000500043EC02F049EC02F073EC02F0D3EC04F054
:10006000E5EC03F0EFEC02F0D08EF28CF28E59EC5E
:1000700000F00CEC01F091EC05F090EC01F091EC4B
:1000800005F0F2B40BDAF3D7939C938EA58AA5986A
:10009000080EB96E000E7C6E1F0E7B6E650EBA6E7A
:1000A000A39A800EA66EA6887A507A507A50A38AB8
:1000B0001200A6B2F5D7A6B4F3D7120009507ACF32
:1000C000E3FF0B50090A03E10A68899011000A5006
:1000D00006E00950E3500D0A01E10A6A11000950D7
:1000E000092AE3500D0A05E10B2A0B50030801E22F
:1000F000898489801100D8CF05F0066E0C50DB5042
:100100000C2A796E0D0A03E10F0601E1A39806504F
:1001100005C0D8FF100011EE80F022EE80F0086AD2
:10012000096A0A6A0C6A0D6A0B6A0F6A120005D81E
:10013000EF6EEF3A02D8EE1212000850E350082A90
:10014000106E0F0B10AC1200090F1200106E103859
:100150000F0B060FD8B2070F2A0F0E6E0D500EC0F0
:10016000DBFF0D2A10500F0B060FD8B2070F2A0F16
:100170000E6E0D500EC0DBFF0D2A1200803FBF0730
:10018000013FBF070227BC010313BC01040FBC01E0
:100190000507BC010603BC01070484000801BC017B
:1001A0000F018A8493949386000EF86E010EF76E09
:1001B000900EF66E800E6F6E6E50800BFDE00E019D
:1001C000F86BF96BFA6BFB6BFC6BFD6B0E01E06B74
:1001D000E26BE36BE46BE66BE76B080EE16FE56FD8
:1001E0000E01E86BEC6BF06BF46BE96BED6BF16B94
:1001F000F56B0E010B00F5CF43FE0B00F5CF44FE6F
:100200000B00F5CF45FE0F01708A606A306B6F6A94
:100210006E50C00BFDE112006F6A60BE04D00A0E82
:100220006F6E30AF12000F50090A03E18992609E91
:10023000120000EE14F062B61ED0740E65BC720E91
:100240000E6E0D500EC0DBFF0D2A6138E842070B21
:10025000EE6E30090E6E0D500EC0DBFF0D2A6138B8
:10026000E842F80B126E6238E842070B1210EE6E8D
:10027000A6EC00F025D0540E65BC520E0E6E0D504B
:100280000EC0DBFF0D2A6138E8461F0BEE6EA6ECB0
:1002900000F06138E846E00B126E6238E8461C0B4D
:1002A00012126250030B1210EE6EA6EC00F06350B7
:1002B000EE6EA6EC00F06450EE6EA6EC00F0148E2C
:1002C000148C65500F0BEE6E136E30090E6E0D50D0
:1002D0000EC0DBFF0D2A135018E00FEE66F0EE5053
:1002E00035DF132EFCD700EE19F066CFEEFF67CF97
:1002F000EEFF68CFEEFF69CFEEFF6ACFEEFF6BCF68
:10030000EEFF6CCFEEFF6DCFEEFF0D0E0E6E0D50BB
:100310000EC0DBFF0D2A0F2AA3888982609E12007F
:100320000B5001E11200080E6F6E20A708D0060ED8
:100330006F6E10A704D0040E6F6E00B71200085045
:10034000E350082A116E540A22E0116E740A0AE082
:100350001150520A1CE01150720A04E01150530A65
:1003600063E058D0EADE146E070BE83AE846616EA7
:1003700000EE12F0DCDE1250156EF80BE83AE8469B
:1003800061121250070BE83AE846626E24D000EE84
:1003900012F0CDDE1250146E148E1F0BE83AE842B4
:1003A000616E00EE12F0C3DE1250156EE00BE83AFB
:1003B000E842611212501C0BE83AE842626E125099
:1003C000030B621262860FEE63F0B1DE166E0FEE63
:1003D00064F0ADDE176E186A656A11B2658CADDE29
:1003E00018E0136E186E65120FEE66F0A0DE132E85
:1003F000FDD766CF19F067CF1AF068CF1BF069CF31
:100400001CF06ACF1DF06BCF1EF06CCF1FF06DCFCC
:1004100020F06086148C0850E350082A0D0AFAE197
:100420000B0601E189941200F29E000EF86E000E98
:10043000F76EFA0EF66E0850E350082A0F0BE844E8
:10044000E844F626D8B0F72A0F01800E6F6E6E5082
:10045000800BFDE00B00F5CF43FE0B00F5CF44FE13
:100460000B00F5CF45FE0F01708A606A306B6F6A32
:100470006E50C00BFDE10F010850E350082A0D0A31
:10048000FBE1F28E1200C20ED56E236A080E226EB8
:100490001200030EB16E246A256A1200F294214AFA
:1004A0000ED8FCEC03F0A1A203D0A192253E242A91
:1004B000222E04D0080E226E11EC05F01200232A21
:1004C0001F0E2316000E23640CD0040E236407D0E5
:1004D000080E236406D00C0E236401D01200898616
:1004E0001200899612003F0EC7169F0EC86EC66A8C
:1004F000C56AC79EC78C94869488280EC6121200BF
:10050000746A756A7F9C7F9EF29E7F847F80550E01
:100510007E6EAA0E7E6E7F827FB2FED7743EF6D7C5
:10052000753EF4D77F94F28E12007F8E7F9C7F847D
:100530007F88F29E550E7E6EAA0E7E6E7F82000030
:10054000F28E7F9412007F8E7F9C7F847F98F29E34
:10055000550E7E6EAA0E7E6E7F82F28E7F94120002
:10056000F66EF76A200EF86E1200000EF9DF090031
:10057000F5CF3BF00900F5CF3CF00900F5CF3DF099
:100580000900F5CF3EF00900F5CF3FF00900F5CFA7
:1005900040F00900F5CF41F00900F5CF46F0120018
:1005A000000EDEDFC2DF3BC0F5FF0D003CC0F5FFF3
:1005B0000D003DC0F5FF0D003EC0F5FF0D003FC032
:1005C000F5FF0D0040C0F5FF0D0041C0F5FF0D0027
:1005D00046C0F5FF0D00000EC3DFB5DF1200C5DF1A
:1005E000430E3B183A6E3A3A3A423A803A82420E09
:1005F0003C18396E3A843CAE3A94399E1200090098
:10060000F5CF2AF02C6A0900F5CF27F008C3EAFFDE
:1006100009C3E9FFEE6A3B0EEE6E030EEE6E2C2A66
:100620002CC0EEFF080EEE6E2B6E0900F5CFEEFF2C
:10063000272E00D02B2EF9D7C1EC05F02A2EEAD7B1
:10064000EE6A3B0EEE6E3AC0EEFF39C0EEFF060ECC
:10065000EE6E430EEE6E420EEE6E3BC0EEFF3CC001
:10066000EEFF26C0EEFF2CC0EEFF8BD2040000048C
:10067000000001020001533838000000000043412F
:100680004E42757374657200000000000000051C86
:100690000102000000FF000043414E427573746583
:1006A000722049440030003235350000000000005F
:1006B0000000000000000000051A020200002710E0
:1006C00003E85374617274204E7200300031303090
:1006D00030300000000000000000000000000000BA
:1006E0000000051D03020000000F00014CC3A46EB2
:1006F0006765205338382D4275730030003135005E
:1007000000000000000000000000000005230402BB
:100710000000271003E853383820537461727400C6
:1007200030003130303030000000000000000000A8
:1007300000000000000031683268336836683768AE
:1007400038682F68306834683568100E006E03EE24
:1007500010F0EE6A002EFDD742D7361C3818006E16
:100760003416341E355000143418356E3414001409
:10077000376E381A311C3318006E2F162F1E30506A
:1007800000142F18306E2F140014326E331A12001A
:10079000B5EC02F03DC002F03EC003F031C02EF0D7
:1007A000010E2D6E32C000F006D836C02EF0010EBC
:1007B0002D6E37C000F0034A022A00502D14D8A431
:1007C000FED8D8902D36F7E3120093809392939839
:1007D000939A8A928A988A9A426A436A476A446AD2
:1007E000200E456E03EE60F0EE68EE68EE68EE688F
:1007F000EE68452EF9D71200080EFA6E44500F0B22
:10080000446E4444F92610D02BD02DD02FD035D0B3
:1008100037D039D03BD03DD00000000000000000B0
:100820000000000000001200476A03EE60F01F0E97
:100830004716050E4702F350E926EECF48F0EECFFB
:1008400049F0EECF4AF0EECF4BF0EECF4CF0463809
:10085000F00BD8B41200FF0F456E8A88442A1200AC
:100860008A82442A12008A92442A1200020E436E9F
:100870004A8081A04A90442A12008A8A442A12009F
:100880008A9A442A12008A98442A12008A82442AA8
:1008900012008A9243504A1281A04A1AD8904336D5
:1008A000D8B006D8450602E1446A12004406120098
:1008B0008B7A010E436E4A1C4B18426E4816481E36
:1008C000495042144818496E481442144C6E4B1A51
:1008D00026D803EE60F01F0E4716050E4702F350B0
:1008E000E92648C0EEFF49C0EEFF4AC0EEFF4BC00C
:1008F000EEFF4CC0EEFF472A03EE60F01F0E4716D6
:10090000050E4702F350E926EECF48F0EECF49F04E
:10091000EECF4AF0EECF4BF0EECF4CF01200B5EC3C
:1009200002F03FC002F040C003F04738E840032621
:10093000D8B0022A4AC02EF0010E2D6E4CC000F035
:10094000034A022A00502D14D8A4DFEC04F0D890FA
:100950002D36F6E31200090EFA6E0050070BE8443C
:10096000680FD8B0FA2AF96E010C020C040C080CBE
:10097000100C200C400C800C006E0006ABEC04F058
:100980002D6EF80E0016004200420042050E0002D5
:1009900003EE63F0F350EBCF2EF0E9CF00F0FF0E43
:1009A0002E1ADFEF04F04E6A04EE00F0EACF08F3EF
:1009B000EACF0AF3E9CF09F3E9CF0BF3120008C33A
:1009C000EAFF09C3E9FF000EEE6E230EEE6E3AC099
:1009D000EEFF39C0EEFF080EEE6E3B50AB0FEE6E31
:1009E0003C50AD0FEE6E02C0EEFF03C0EEFF2E5086
:1009F0002D14D8A4010E010AEE6E010AEE6EEE6A05
:100A0000EE6A0F0EE92601E3EA2AF00EE916040E5B
:100A1000EA12070EEA16EACF08F3E9CF09F34E2AE5
:100A200012004E52D8B41200040E0F5CD8B012005F
:100A3000040E6F6E00A701D012000AC3EAFF0BC3B9
:100A4000E9FFEE501F0BE83AE842616EEF50E00B11
:100A5000E83AE8426112EF501C0BE83AE842626E55
:100A6000EE50030B62126286EECF63FFEECF64FF9F
:100A7000EECF65FFEECF66FFEECF67FFEECF68FFEC
:100A8000EECF69FFEECF6AFFEECF6BFFEECF6CFFCC
:100A9000EECF6DFF60860AC3EAFF0BC3E9FF540E79
:100AA0000E6E0D500EC0DBFF0D2AEE50A6EC00F0CE
:100AB000EE50A6EC00F0EE50A6EC00F0EE50A6ECE6
:100AC00000F0EE500F0B07E1300E0E6E0D500EC011
:100AD000DBFF0D2A0DD04D6E300F0E6E0D500EC087
:100AE000DBFF0D2AEECFE8FFA6EC00F04D2EFAD783
:100AF0000D0E0E6E0D500EC0DBFF0D2A0F2AA388BF
:100B00004E060F0EE92601E3EA2AF00EE916040E5E
:100B1000EA12070EEA16EACF0AF3E9CF0BF3120046
:100B2000120014AC1200149C14AE12001552D8B46A
:100B30003AD01550160AD8B4DAD01550220AD8B4D3
:100B4000FFD01550300AD8B42BD11550310AD8B483
:100B50002AD11550360AD8B450D115503A0AD8B413
:100B600096D112001950430AD8A412001A50420A12
:100B7000D8A412001B503B18D8A412001C503C18DB
:100B800012000F0EE92601E3EA2AF00EE916040E20
:100B9000EA12070EEA16EACF08F3E9CF09F34E2A64
:100BA000120000EF00F0DEDF11E11D500B0A08E13A
:100BB0001850060A01E121D01850080A56E0120028
:100BC0001850060A03E11D50800AEBE0120008C32A
:100BD000EAFF09C3E9FF000EEE6E010EEE6E3AC0A9
:100BE000EEFF39C0EEFF1850EE6E000EEE6EEE6EA8
:100BF000EE6EEE6EEE6EEE6EC4D708C3EAFF09C36A
:100C0000E9FFEE6A010EEE6E3AC0EEFF39C0EEFF6C
:100C1000080EEE6E19C0EEFF1AC0EEFF1BC0EEFF0D
:100C20001CC0EEFF1DC0EEFF1EC0EEFF1EC0E8FFA1
:100C3000020A05E13FC0EEFF40C0EEFFA2D71EC092
:100C4000E8FF030A05E1000EEE6E46C0EEFF99D7FD
:100C50001EC0E8FF040A05E1000EEE6E41C0EEFF83
:100C600090D7FF0EEE6EEE6E8CD7010E1E1809E1C6
:100C70001FC03BF0550E3B2620C03CF0530E3C26D7
:100C800015D0020E1E1805E11FC03FF020C040F035
:100C90000DD0030E1E1803E120C046F007D0040E4D
:100CA0001E1803E120C041F001D01200D0EC02F088
:100CB000EFEC02F008C3EAFF09C3E9FFEE6A010E98
:100CC000EE6E3AC0EEFF39C0EEFF070EEE6E19C0B1
:100CD000EEFF1AC0EEFF1BC0EEFF1CC0EEFF1DC0F2
:100CE000EEFF1EC0EEFF010EEE6E4BD71200185045
:100CF000080A01E0120036DFD8A412001EC000F07E
:100D0000030E0016004608C3EAFF09C3E9FFEE6AB6
:100D1000170EEE6E3AC0EEFF39C0EEFF070EEE6E14
:100D200019C0EEFF1AC0EEFF1BC0EEFF1CC0EEFFA5
:100D30001FC0EBFF20C0EBFF010EEE6E22D71200AA
:100D40001850040AD8B412D01850070AD8A41200B8
:100D50001B503F18D8A412001C504018D8A41200F1
:100D60001F50010AD8A41200E5EF03F01BC002F0E7
:100D70001CC003F04050035E3F50D8A03F3C025ED1
:100D80000250000AD8A4120046C0E8FFE83A010F5A
:100D9000D8900354D8A012000350BCEC04F0120009
:100DA00018520DE012001850080AD8A412001F5063
:100DB000EE0AD8A412002050EE0AD8A4120008C3EC
:100DC000EAFF09C3E9FFEE6A310EEE6E3AC0EEFFAC
:100DD00039C0EEFF080EEE6E430EEE6E420EEE6E62
:100DE0003BC0EEFF3CC0EEFF010EEE6E0B0EEE6E52
:100DF000000EEE6E400EEE6EC4D607500009D8A469
:100E0000120018520AE01850050A01E01200AADE8A
:100E100003E11D50110A1FE0120008C3EAFF09C3D5
:100E2000E9FFEE6A370EEE6E3AC0EEFF39C0EEFF14
:100E3000080EEE6E430EEE6E420EEE6E3BC0EEFFFF
:100E40003CC0EEFF010EEE6E0B0EEE6E000EEE6E6F
:100E5000400EEE6E96D6010E076E08C3EAFF09C378
:100E6000E9FFEE6A010EEE6E3AC0EEFF39C0EEFF0A
:100E7000060EEE6E430EEE6E420EEE6E3BC0EEFFC1
:100E80003CC0EEFF800EEE6E000EEE6E7AD618506D
:100E9000050AD8A4120066DED8A412001D50266EE2
:100EA000000A08E16C0EF66E060EF76E000EF86E84
:100EB000FFEF02F01D50010A08E18E0EF66E060EDD
:100EC000F76E000EF86EFFEF02F01D50020A08E107
:100ED000B80EF66E060EF76E000EF86EFFEF02F01B
:100EE0001D50030A08E1E20EF66E060EF76E000EC4
:100EF000F86EFFEF02F01D50040A08E10C0EF66ECA
:100F0000070EF76E000EF86EFFEF02F012000039C8
:100F10000F0BF00F036F0327E20F046F320F066F02
:100F200000510F0B042704270627E90F056F05273B
:100F3000052701390F0B0527062705370637061F3A
:100F4000063701510F0B06270337070E026F0A0EF3
:100F500006270507D8A0A8EF07F005270407D8A0A3
:100F6000ADEF07F004270307D8A0B2EF07F003277F
:0A0F70000207D8A0B7EF07F0000C4D
:020000040020DA
:0800000055530000000001014E
:020000040030CA
:040000001412692845
:020005008181F7
:060008000FC00FE00F40E5
:00000001FF
