:020000040000FA
:040000000EEF00F00F
:040008005CEF00F0B9
:0800180079EF00F00F01F26A1C
:10002000A36AA46AC26AC16AC06A5D6B5C6B5F6BDB
:100030005E6B8B6A949489688994926A9490949286
:1000400042EC00F089EC00F0CEEC00F041EC02F064
:1000500047EC02F071EC02F0A9EC04F0E3EC03F0E1
:10006000EDEC02F0D08EF28CF28E57EC00F00AEC40
:1000700001F067EC05F08EEC01F067EC05F0F2B4EE
:100080000BDAF3D7939C938EA58AA598080EB96EC8
:10009000000E7C6E1F0E7B6E650EBA6EA39A800EEC
:1000A000A66EA6887A507A507A50A38A1200A6B219
:1000B000F5D7A6B4F3D7120008507ACFE3FF0A5061
:1000C000090A03E1096889901100095006E0085007
:1000D000E3500D0A01E1096A11000850082AE350B3
:1000E0000D0A05E10A2A0A50030801E28984898081
:1000F0001100D8CF05F0066E0B50DB500B2A796E3D
:100100000D0A03E10E0601E1A398065005C0D8FFD1
:10011000100011EE80F022EE80F0076A086A096A8A
:100120000B6A0C6A0A6A0E6A120005D8EF6EEF3A83
:1001300002D8EE1212000750E350072A0F6E0F0B81
:100140000FAC1200090F12000F6E0F380F0B060FC5
:10015000D8B2070F2A0F0D6E0C500DC0DBFF0C2A12
:100160000F500F0B060FD8B2070F2A0F0D6E0C5051
:100170000DC0DBFF0C2A1200803FBF07013FBF0705
:100180000227BC010313BC01040FBC010507BC011D
:100190000603BC01070484000801BC010F018A8426
:1001A00093949386000EF86E010EF76E8C0EF66E29
:1001B000800E6F6E6E50800BFDE00E01F86BF96BD8
:1001C000FA6BFB6BFC6BFD6B0E01E06BE26BE36BA0
:1001D000E46BE66BE76B080EE16FE56F0E01E86B11
:1001E000EC6BF06BF46BE96BED6BF16BF56B0E0187
:1001F0000B00F5CF43FE0B00F5CF44FE0B00F5CF0F
:1002000045FE0F01708A606A306B6F6A6E50C00BDA
:10021000FDE112006F6A60BE04D00A0E6F6E30AF4F
:1002200012000E50090A03E18992609E120000EE4E
:1002300013F062B61ED0740E65BC720E0D6E0C50BB
:100240000DC0DBFF0C2A6138E842070BEE6E300967
:100250000D6E0C500DC0DBFF0C2A6138E842F80B24
:10026000116E6238E842070B1110EE6EA4EC00F03C
:1002700025D0540E65BC520E0D6E0C500DC0DBFF28
:100280000C2A6138E8461F0BEE6EA4EC00F06138D2
:10029000E846E00B116E6238E8461C0B1112625002
:1002A000030B1110EE6EA4EC00F06350EE6EA4ECA4
:1002B00000F06450EE6EA4EC00F0138E138C6550C9
:1002C0000F0BEE6E126E30090D6E0C500DC0DBFF81
:1002D0000C2A125018E00FEE66F0EE5035DF122EA9
:1002E000FCD700EE18F066CFEEFF67CFEEFF68CFC9
:1002F000EEFF69CFEEFF6ACFEEFF6BCFEEFF6CCF64
:10030000EEFF6DCFEEFF0D0E0D6E0C500DC0DBFF3E
:100310000C2A0E2AA3888982609E12000A5001E1ED
:100320001200080E6F6E20A708D0060E6F6E10A781
:1003300004D0040E6F6E00B712000750E350072A76
:10034000106E540A22E0106E740A0AE01050520A2D
:100350001CE01050720A04E01050530A63E058D0B9
:10036000EADE136E070BE83AE846616E00EE11F024
:10037000DCDE1150146EF80BE83AE84661121150B9
:10038000070BE83AE846626E24D000EE11F0CDDEAD
:100390001150136E138E1F0BE83AE842616E00EEA7
:1003A00011F0C3DE1150146EE00BE83AE84261121E
:1003B00011501C0BE83AE842626E1150030B6212B6
:1003C00062860FEE63F0B1DE156E0FEE64F0ADDE07
:1003D000166E176A656A10B2658CADDE18E0126E93
:1003E000176E65120FEE66F0A0DE122EFDD766CFF7
:1003F00018F067CF19F068CF1AF069CF1BF06ACFF9
:100400001CF06BCF1DF06CCF1EF06DCF1FF060861F
:10041000138C0750E350072A0D0AFAE10A0601E19E
:1004200089941200F29E000EF86E000EF76EFA0E1E
:10043000F66E0750E350072A0F0BE844E844F6260F
:10044000D8B0F72A0F01800E6F6E6E50800BFDE062
:100450000B00F5CF43FE0B00F5CF44FE0B00F5CFAC
:1004600045FE0F01708A606A306B6F6A6E50C00B78
:10047000FDE10F010750E350072A0D0AFBE1F28E60
:100480001200C20ED56E226A080E216E1200030EF3
:10049000B16E236A246A1200F294204A0ED8FAEC54
:1004A00003F0A1A203D0A192243E232A212E04D03E
:1004B000080E216EE7EC04F01200222A1F0E22160D
:1004C000000E22640CD0040E226407D0080E2264B1
:1004D00006D00C0E226401D0120089861200899683
:1004E00012003F0EC7169F0EC86EC66AC56AC79E29
:1004F000C78C94869488280EC6121200746A756A96
:100500007F9C7F9EF29E7F847F80550E7E6EAA0E1A
:100510007E6E7F827FB2FED7743EF6D7753EF4D7EB
:100520007F94F28E12007F8E7F9C7F847F88F29E64
:10053000550E7E6EAA0E7E6E7F820000F28E7F9434
:1005400012007F8E7F9C7F847F98F29E550E7E6E78
:10055000AA0E7E6E7F82F28E7F941200F66EF76A8C
:10056000200EF86E1200000EF9DF0900F5CF3AF008
:100570000900F5CF3BF00900F5CF3CF00900F5CFBD
:100580003DF00900F5CF3EF00900F5CF3FF009003E
:10059000F5CF40F00900F5CF45F01200000EDEDF88
:1005A000C2DF3AC0F5FF0D003BC0F5FF0D003CC0B7
:1005B000F5FF0D003DC0F5FF0D003EC0F5FF0D003D
:1005C0003FC0F5FF0D0040C0F5FF0D0045C0F5FF31
:1005D0000D00000EC3DFB5DF1200C5DF430E3A1871
:1005E000396E393A394239803982420E3B18386EB9
:1005F00039843BAE3994389E12000900F5CF29F0BA
:100600002B6A0900F5CF26F008C3EAFF09C3E9FF0A
:10061000EE6A3B0EEE6E030EEE6E2B2A2BC0EEFF43
:10062000080EEE6E2A6E0900F5CFEEFF262E00D0E2
:100630002A2EF9D793EC05F0292EEAD7EE6A3B0E65
:10064000EE6E39C0EEFF38C0EEFF060EEE6E430EC2
:10065000EE6E420EEE6E3AC0EEFF3BC0EEFF25C0DE
:10066000EEFF2BC0EEFF5FD2040000040000010289
:100670000001533838000000000043414E427573BA
:1006800074657200000000000000051C01020000FB
:1006900000FF000043414E42757374657220494467
:1006A000003000323535000000000000000000007E
:1006B00000000000051A02020000271003E853742E
:1006C000617274204E7200300031303030300000E2
:1006D0000000000000000000000000000000051DF8
:1006E00003020000000F00014CC3A46E6765205395
:1006F00038382D427573003000313500000000009D
:100700000000000000000000052304020000271084
:1007100003E853383820537461727400300031306C
:100720003030300000000000000000000000000039
:1007300000003068316832683568366837682E687E
:100740002F6833683468100E006E03EE10F0EE6A06
:10075000002EFDD742D7351C3718006E3316331ED6
:10076000345000143318346E33140014366E371AB4
:10077000301C3218006E2E162E1E2F5000142E180C
:100780002F6E2E140014316E321A1200B3EC02F0E8
:100790003CC002F03DC003F030C02DF0010E2C6EC5
:1007A00031C000F006D835C02DF0010E2C6E36C0D9
:1007B00000F0034A022A00502C14D8A4D6D8D890AE
:1007C0002C36F7E31200938093929398939A8A922F
:1007D0008A988A9A416A426A466A436A200E446E3F
:1007E00003EE60F0EE68EE68EE68EE68EE68442EA8
:1007F000F9D71200080EFA6E43500F0B436E4344B4
:10080000F92610D02BD02DD02FD035D037D039D0DD
:100810003BD03DD0000000000000000000000000C0
:1008200000001200466A03EE60F01F0E4616050E29
:100830004602F350E926EECF47F0EECF48F0EECF78
:1008400049F0EECF4AF0EECF4BF04538F00BD8B47C
:100850001200FF0F446E8A88432A12008A82432ABC
:1008600012008A92432A1200020E426E498081A031
:100870004990432A12008A8A432A12008A9A432AFC
:1008800012008A98432A12008A82432A12008A920E
:100890004250491281A0491AD8904236D8B006D8A1
:1008A000440602E1436A1200430612008B7A010EED
:1008B000426E491C4A18416E4716471E4850411463
:1008C0004718486E471441144B6E4A1A26D803EE57
:1008D00060F01F0E4616050E4602F350E92647C08B
:1008E000EEFF48C0EEFF49C0EEFF4AC0EEFF4BC02E
:1008F000EEFF462A03EE60F01F0E4616050E460276
:10090000F350E926EECF47F0EECF48F0EECF49F0B6
:10091000EECF4AF0EECF4BF01200B3EC02F03EC047
:1009200002F03FC003F04638E8400326D8B0022A60
:1009300049C02DF0010E2C6E4BC000F0034A022A74
:1009400000502C14D8A4B5EC04F0D8902C36F6E363
:1009500012004D6A04EE00F0EACF08F3EACF0AF382
:10096000E9CF09F3E9CF0BF3120008C3EAFF09C38B
:10097000E9FF000EEE6E230EEE6E39C0EEFF38C0BA
:10098000EEFF080EEE6E3A50AB0FEE6E3B50AD0F21
:10099000EE6E02C0EEFF03C0EEFF2D502C14D8A463
:1009A000010E010AEE6E010AEE6EEE6AEE6A0F0E9D
:1009B000E92601E3EA2AF00EE916040EEA12070E10
:1009C000EA16EACF08F3E9CF09F34D2A12004D5297
:1009D000D8B41200040E0E5CD8B01200040E6F6E74
:1009E00000A701D012000AC3EAFF0BC3E9FFEE50D3
:1009F0001F0BE83AE842616EEF50E00BE83AE8423C
:100A00006112EF501C0BE83AE842626EEE50030BA5
:100A100062126286EECF63FFEECF64FFEECF65FF1A
:100A2000EECF66FFEECF67FFEECF68FFEECF69FF38
:100A3000EECF6AFFEECF6BFFEECF6CFFEECF6DFF18
:100A400060860AC3EAFF0BC3E9FF540E0D6E0C501B
:100A50000DC0DBFF0C2AEE50A4EC00F0EE50A4EC2D
:100A600000F0EE50A4EC00F0EE50A4EC00F0EE50DC
:100A70000F0B07E1300E0D6E0C500DC0DBFF0C2A82
:100A80000DD04C6E300F0D6E0C500DC0DBFF0C2ADC
:100A9000EECFE8FFA4EC00F04C2EFAD70D0E0D6E51
:100AA0000C500DC0DBFF0C2A0E2AA3884D060F0E3A
:100AB000E92601E3EA2AF00EE916040EEA12070E0F
:100AC000EA16EACF0AF3E9CF0BF31200120013ACD7
:100AD0001200139C13AE12001452D8B436D0145026
:100AE000160AD8B4D2D01450300AD8B4F7D0145063
:100AF000310AD8B4F6D01450360AD8B41CD11450E8
:100B00003A0AD8B45BD112001850430AD8A4120094
:100B10001950420AD8A412001A503A18D8A4120048
:100B20001B503B1812000F0EE92601E3EA2AF00ED3
:100B3000E916040EEA12070EEA16EACF08F3E9CF27
:100B400009F34D2A120000EF00F0DEDF11E11C5026
:100B50000B0A08E11750060A01E121D01750080AD4
:100B600056E012001750060A03E11C50800AEBE021
:100B7000120008C3EAFF09C3E9FF000EEE6E010E82
:100B8000EE6E39C0EEFF38C0EEFF1750EE6E000E6D
:100B9000EE6EEE6EEE6EEE6EEE6EEE6EC4D708C3C7
:100BA000EAFF09C3E9FFEE6A010EEE6E39C0EEFFFF
:100BB00038C0EEFF080EEE6E18C0EEFF19C0EEFF53
:100BC0001AC0EEFF1BC0EEFF1CC0EEFF1DC0EEFF03
:100BD0001DC0E8FF020A05E13EC0EEFF3FC0EEFF88
:100BE000A2D71DC0E8FF030A05E1000EEE6E45C066
:100BF000EEFF99D71DC0E8FF040A05E1000EEE6E76
:100C000040C0EEFF90D7FF0EEE6EEE6E8CD7010E59
:100C10001D1805E11EC03AF01FC03BF015D0020EB2
:100C20001D1805E11EC03EF01FC03FF00DD0030EA1
:100C30001D1803E11FC045F007D0040E1D1803E185
:100C40001FC040F001D01200CEEC02F0EDEC02F03B
:100C500008C3EAFF09C3E9FFEE6A010EEE6E39C070
:100C6000EEFF38C0EEFF070EEE6E18C0EEFF19C0A3
:100C7000EEFF1AC0EEFF1BC0EEFF1CC0EEFF1DC052
:100C8000EEFF010EEE6E4FD712001750080A01E07A
:100C900012003ADFD8A412001DC000F0030E0016A7
:100CA000004608C3EAFF09C3E9FFEE6A170EEE6EBD
:100CB00039C0EEFF38C0EEFF070EEE6E18C0EEFF33
:100CC00019C0EEFF1AC0EEFF1BC0EEFF1EC0EBFF07
:100CD0001FC0EBFF010EEE6E26D7120017520DE07B
:100CE00012001750080AD8A412001E50EE0AD8A409
:100CF00012001F50EE0AD8A4120008C3EAFF09C36D
:100D0000E9FFEE6A310EEE6E39C0EEFF38C0EEFF3D
:100D1000080EEE6E430EEE6E420EEE6E3AC0EEFF21
:100D20003BC0EEFF010EEE6E050EEE6E000EEE6E97
:100D3000400EEE6EF8D617520AE01750050A01E091
:100D40001200E2DE03E11C50110A1EE0120008C38B
:100D5000EAFF09C3E9FFEE6A370EEE6E39C0EEFF17
:100D600038C0EEFF080EEE6E430EEE6E420EEE6ED3
:100D70003AC0EEFF3BC0EEFF010EEE6E050EEE6ECA
:100D8000EE6E400EEE6ECFD608C3EAFF09C3E9FF50
:100D9000EE6A010EEE6E39C0EEFF38C0EEFF060EB1
:100DA000EE6E430EEE6E420EEE6E3AC0EEFF3BC0AC
:100DB000EEFF800EEE6E000EEE6EB5D61750050AF1
:100DC000D8A41200A1DED8A412001C50256E000A7F
:100DD00008E1680EF66E060EF76E000EF86EFDEF77
:100DE00002F01C50010A08E18A0EF66E060EF76E3C
:100DF000000EF86EFDEF02F01C50020A08E1B40E7E
:100E0000F66E060EF76E000EF86EFDEF02F01C5047
:100E1000030A08E1DE0EF66E060EF76E000EF86E9F
:100E2000FDEF02F01C50040A08E1080EF66E070EF2
:100E3000F76E000EF86EFDEF02F0120000390F0B96
:100E4000F00F036F0327E20F046F320F066F00519C
:100E50000F0B042704270627E90F056F0527052731
:100E600001390F0B0527062705370637061F0637FA
:100E700001510F0B06270337070E026F0A0E0627D4
:100E80000507D8A03FEF07F005270407D8A044EFD7
:100E900007F004270307D8A049EF07F0032702074C
:080EA000D8A04EEF07F0000C92
:020000040020DA
:0800000055530000000001014E
:020000040030CA
:040000001412692845
:020005008181F7
:060008000FC00FE00F40E5
:00000001FF
