:020000040000FA
:040000000EEF00F00F
:040008005CEF00F0B9
:0800180078EF00F00F01F26A1D
:10002000A36AA46AC26AC16AC06A5D6B5C6B5F6BDB
:100030005E6B8B6A949489688994926A9490949286
:1000400042EC00F088EC00F0CDEC00F040EC02F067
:1000500046EC02F070EC02F094EC04F0D2EC03F009
:10006000B2EC02F0D08EF28CF28E57EC00F009EC7C
:1000700001F052EC05F08DEC01F052EC05F0F2B419
:100080000ADAF3D7939C938EA58AA598080EB96EC9
:10009000000E7C6E1F0E7B6E650EBA6EA39A800EEC
:1000A000A66EA6887A507A507A50A38A1200A6B219
:1000B000F5D7A6B4F3D7120008507ACFE3FF0A5061
:1000C000090A03E1096889901100095006E0085007
:1000D000E3500D0A01E1096A11000850082AE350B3
:1000E0000D0A05E10A2A0A50030801E28984110079
:1000F000D8CF05F0066E0B50DB500B2A796E0D0A37
:1001000003E10E0601E1A398065005C0D8FF1000D8
:1001100011EE80F022EE80F0076A086A096A0B6A25
:100120000C6A0A6A0E6A120005D8EF6EEF3A02D81E
:10013000EE1212000750E350072A0F6E0F0B0FACA0
:100140001200090F12000F6E0F380F0B060FD8B2F6
:10015000070F2A0F0D6E0C500DC0DBFF0C2A0F503D
:100160000F0B060FD8B2070F2A0F0D6E0C500DC0E3
:10017000DBFF0C2A1200803FBF07013FBF070227A9
:10018000BC010313BC01040FBC010507BC0106033D
:10019000BC01070484000801BC010F018A84939408
:1001A0009386000EF86E010EF76E8A0EF66E800EC4
:1001B0006F6E6E50800BFDE00E01F86BF96BFA6B01
:1001C000FB6BFC6BFD6B0E01E06BE26BE36BE46BB6
:1001D000E66BE76B080EE16FE56F0E01E86BEC6B09
:1001E000F06BF46BE96BED6BF16BF56B0E010B00D3
:1001F000F5CF43FE0B00F5CF44FE0B00F5CF45FED7
:100200000F01708A606A306B6F6A6E50C00BFDE13F
:1002100012006F6A60BE04D00A0E6F6E30AF12001B
:100220000E50090A03E18992609E120000EE13F05D
:1002300062B61ED0740E65BC720E0D6E0C500DC0F1
:10024000DBFF0C2A6138E842070BEE6E30090D6EB9
:100250000C500DC0DBFF0C2A6138E842F80B116E20
:100260006238E842070B1110EE6EA3EC00F025D0C7
:10027000540E65BC520E0D6E0C500DC0DBFF0C2AE7
:100280006138E8461F0BEE6EA3EC00F06138E846DB
:10029000E00B116E6238E8461C0B11126250030B22
:1002A0001110EE6EA3EC00F06350EE6EA3EC00F0C4
:1002B0006450EE6EA3EC00F0138E138C65500F0BA0
:1002C000EE6E126E30090D6E0C500DC0DBFF0C2A65
:1002D000125018E00FEE66F0EE5035DF122EFCD70C
:1002E00000EE18F066CFEEFF67CFEEFF68CFEEFFAF
:1002F00069CFEEFF6ACFEEFF6BCFEEFF6CCFEEFF64
:100300006DCFEEFF0D0E0D6E0C500DC0DBFF0C2AF5
:100310000E2AA3888992609E12000A5001E1120001
:10032000080E6F6E20A708D0060E6F6E10A704D0BF
:10033000040E6F6E00B712000750E350072A106ECC
:10034000540A22E0106E740A0AE01050520A1CE0AF
:100350001050720A04E01050530A63E058D0EADEED
:10036000136E070BE83AE846616E00EE11F0DCDE32
:100370001150146EF80BE83AE84661121150070B61
:10038000E83AE846626E24D000EE11F0CDDE11505E
:10039000136E138E1F0BE83AE842616E00EE11F007
:1003A000C3DE1150146EE00BE83AE84261121150BE
:1003B0001C0BE83AE842626E1150030B621262862F
:1003C0000FEE63F0B1DE156E0FEE64F0ADDE166E6B
:1003D000176A656A10B2658CADDE18E0126E176E92
:1003E00065120FEE66F0A0DE122EFDD766CF18F074
:1003F00067CF19F068CF1AF069CF1BF06ACF1CF0F5
:100400006BCF1DF06CCF1EF06DCF1FF06086138C8C
:100410000750E350072A0D0AFAE10A0601E1899420
:100420001200F29E000EF86E000EF76EFA0EF66ED7
:100430000750E350072A0F0BE844E844F626D8B0EB
:10044000F72A0F01800E6F6E6E50800BFDE00B00DF
:10045000F5CF43FE0B00F5CF44FE0B00F5CF45FE74
:100460000F01708A606A306B6F6A6E50C00BFDE1DD
:100470000F010750E350072A0D0AFBE1F28E12002C
:10048000C20ED56E226A040E216E1200030EB16EEA
:10049000236A246A1200F294204A0ED8A1A203D043
:1004A000A192243E232A214E02D07CDA1200E9ECEC
:1004B00003F0040E216E1200222A1F0E2216000ED7
:1004C00022640CD0040E226407D0080E226406D0E9
:1004D0000C0E226401D01200898612008996120047
:1004E0003F0EC7169F0EC86EC66AC56AC79EC78CE8
:1004F00094869488280EC6121200746A756A7F9CCE
:100500007F9EF29E7F847F80550E7E6EAA0E7E6E49
:100510007F827FB2FED7743EF6D7753EF4D77F94C4
:10052000F28E12007F8E7F9C7F847F88F29E550E14
:100530007E6EAA0E7E6E7F820000F28E7F94120085
:100540007F8E7F9C7F847F98F29E550E7E6EAA0ED2
:100550007E6E7F82F28E7F941200F66EF76A200E16
:10056000F86E1200000EF9DF0900F5CF37F0090030
:10057000F5CF38F00900F5CF39F00900F5CF3AF0A2
:100580000900F5CF3BF00900F5CF3CF00900F5CFAD
:100590003DF01200000EE1DFC5DF37C0F5FF0D00B2
:1005A00038C0F5FF0D0039C0F5FF0D003AC0F5FF6A
:1005B0000D003BC0F5FF0D003CC0F5FF0D003DC038
:1005C000F5FF0D00000EC9DFBBDF1200CBDF37C027
:1005D00000F0430A00460046004600800082008486
:1005E00000C036F038C000F0420A009E00C035F06E
:1005F00000BE120036C000F0009E00C036F01200AF
:100600000900F5CF26F0286A090008C3EAFF09C3EC
:10061000E9FFEE6A3B0EEE6E030EEE6E282A28C04E
:10062000EEFF080EEE6E276E0900F5CFEEFF272EC7
:10063000FBD77EEC05F0262EECD7EE6A3B0EEE6E75
:1006400036C0EEFF35C0EEFF060EEE6E430EEE6EC8
:10065000420EEE6E37C0EEFF38C0EEFF25C0EEFF53
:1006600028C0EEFF4BD2040000040000010200018C
:10067000533838000000000043414E4275737465E2
:10068000720000000000000004000102000000FFF2
:10069000000043414E427573746572204944003036
:1006A00000323535000000000000040002020000A6
:1006B000271003E85374617274204E7200300031C9
:1006C0003030303000000000000000000400030261
:1006D0000000000F00014CC3A46E6765005338385A
:1006E0002D42757300300031360000000000040018
:1006F00004020000271003E8533838205374617255
:100700007400300031303030300000000000000054
:100710002D682E682F683268336834682B682C681F
:1007200030683168100E006E03EE10F0EE6A002E95
:10073000FDD74CD7321C3418006E3016301E3150A5
:1007400000143018316E30140014336E341A2D1C1E
:100750002F18006E2B162B1E2C5000142B182C6EED
:100760002B1400142E6E2F1A1200B2EC02F039C0B6
:1007700002F03AC003F02DC02AF0010E296E2EC0FF
:1007800000F006D832C02AF0010E296E33C000F006
:10079000034A022A00502914D8A4D2D8D890293666
:1007A000F7E31200938093929398939A8A928A988F
:1007B0008A9A3E6A3F6A426A406A200E416E03EEA0
:1007C00060F0EE68EE68EE68EE68EE68412EF9D7EC
:1007D0001200070EFA6E40500F0B406E4044F9268F
:1007E00010D027D029D02BD031D033D035D037D02E
:1007F00039D00000000000000000000000000000F0
:100800001200426A03EE60F01F0E4216050E42020D
:10081000F350E926EECF43F0EECF44F0EECF45F0B3
:10082000EECF46F0EECF47F00F0E416E8A88402A99
:1008300012008A82402A12008A92402A1200020E76
:100840003F6E458081A04590402A12008A8A402A46
:1008500012008A9A402A12008A98402A12008A823C
:10086000402A12008A923F50451281A0451AD89022
:100870003F36D8B006D8410602E1406A1200400671
:1008800012008B7A010E3F6E451C46183E6E4316D1
:10089000431E44503E144318446E43143E14476EA6
:1008A000461A26D803EE60F01F0E4216050E4202CD
:1008B000F350E92643C0EEFF44C0EEFF45C0EEFF13
:1008C00046C0EEFF47C0EEFF422A03EE60F01F0E67
:1008D0004216050E4202F350E926EECF43F0EECF6A
:1008E00044F0EECF45F0EECF46F0EECF47F01200E9
:1008F000B2EC02F03BC002F03CC003F04238E840EA
:100900000326D8B0022A45C02AF0010E296E47C03E
:1009100000F0034A022A00502914D8A4A0EC04F0E5
:10092000D8902936F6E31200496A04EE00F0EACFC7
:1009300008F3EACF0AF3E9CF09F3E9CF0BF312008A
:1009400008C3EAFF09C3E9FF000EEE6E230EEE6E48
:1009500036C0EEFF35C0EEFF080EEE6E3750AB0F1F
:10096000EE6E3850AD0FEE6E02C0EEFF03C0EEFF2C
:100970002A502914D8A4010E010AEE6E010AEE6E67
:10098000EE6AEE6A0F0EE92601E3EA2AF00EE91696
:10099000040EEA12070EEA16EACF08F3E9CF09F3CC
:1009A000492A12004952D8B41200040E0E5CD8B085
:1009B0001200040E6F6E00A701D012000AC3EAFFF6
:1009C0000BC3E9FFEE501F0BE83AE842616EEF50AF
:1009D000E00BE83AE8426112EF501C0BE83AE842BB
:1009E000626EEE50030B62126286EECF63FFEECFB3
:1009F00064FFEECF65FFEECF66FFEECF67FFEECF71
:100A000068FFEECF69FFEECF6AFFEECF6BFFEECF50
:100A10006CFFEECF6DFF60860AC3EAFF0BC3E9FFF0
:100A2000540E0D6E0C500DC0DBFF0C2AEE50A3ECE3
:100A300000F0EE50A3EC00F0EE50A3EC00F0EE500E
:100A4000A3EC00F0EE500F0B07E1300E0D6E0C50D2
:100A50000DC0DBFF0C2A0DD0486E300F0D6E0C5010
:100A60000DC0DBFF0C2AEECFE8FFA3EC00F0482E10
:100A7000FAD70D0E0D6E0C500DC0DBFF0C2A0E2A9E
:100A8000A38849060F0EE92601E3EA2AF00EE916CB
:100A9000040EEA12070EEA16EACF0AF3E9CF0BF3C7
:100AA0001200120013AC1200139C13AE1200145269
:100AB000D8B434D01450160AD8B497D01450300A91
:100AC000D8B4BCD01450310AD8B4BBD01450360AB4
:100AD000D8B4E0D014503A0AD8B4FCD01200185060
:100AE000430AD8A412001950420AD8A412001A507E
:100AF0003718D8A412001B50381812000F0EE92620
:100B000001E3EA2AF00EE916040EEA12070EEA16CD
:100B1000EACF08F3E9CF09F3492A1200E0DF0CE13C
:100B20001750080A03E11C500B0A1DE01750060A73
:100B300003E11C50800A57E0120008C3EAFF09C312
:100B4000E9FF000EEE6E010EEE6E36C0EEFF35C010
:100B5000EEFF1750EE6E000EEE6EEE6EEE6EEE6E67
:100B6000EE6EEE6ECBD7010E1D1805E11EC037F0FC
:100B70001FC038F017D0020E1D1805E11EC039F055
:100B80001FC03AF00FD0030E1D1805E11EC03BF048
:100B90001FC03CF007D0040E1D1803E11FC03DF03C
:100BA00001D01200CAEC02F0E6EC02F008C3EAFF42
:100BB00009C3E9FFEE6A010EEE6E36C0EEFF35C0E6
:100BC000EEFF070EEE6E18C0EEFF19C0EEFF1AC062
:100BD000EEFF1BC0EEFF1CC0EEFF1DC0EEFF010EBE
:100BE000EE6E8CD7120000EF00F01750080A01E0FB
:100BF000120075DFD8A412001DC000F0030E00160D
:100C0000004608C3EAFF09C3E9FFEE6A170EEE6E5D
:100C100036C0EEFF35C0EEFF070EEE6E18C0EEFFD9
:100C200019C0EEFF1AC0EEFF1BC0EEFF1EC0EBFFA7
:100C30001FC0EBFF010EEE6E61D7120017520DE0E0
:100C400012001750080AD8A412001E50EE0AD8A4A9
:100C500012001F50EE0AD8A4120008C3EAFF09C30D
:100C6000E9FFEE6A310EEE6E36C0EEFF35C0EEFFE4
:100C7000080EEE6E430EEE6E420EEE6E37C0EEFFC5
:100C800038C0EEFF010EEE6E000EEE6EEE6E400E00
:100C9000EE6E34D7175201E0120008C3EAFF09C311
:100CA000E9FFEE6A370EEE6E36C0EEFF35C0EEFF9E
:100CB000080EEE6E430EEE6E420EEE6E37C0EEFF85
:100CC00038C0EEFF010EEE6E000EEE6EEE6E400EC0
:100CD000EE6E14D71750050AD8A4120000DFD8A46E
:100CE00012001C50256E000A08E1660EF66E060E14
:100CF000F76E000EF86E00EF03F01C50010A08E1D9
:100D0000880EF66E060EF76E000EF86E00EF03F01A
:100D10001C50020A08E1AA0EF66E060EF76E000ECF
:100D2000F86E00EF03F01C50030A08E1CC0EF66EDB
:100D3000060EF76E000EF86E00EF03F01C50040A6A
:100D400008E1EE0EF66E060EF76E000EF86E00EF7E
:040D500003F012009A
:020000040030CA
:040000001412692845
:020005008181F7
:060008000FC00FE00F40E5
:00000001FF
