:020000040000FA
:040000000EEF00F00F
:040008005FEF00F0B6
:080018007CEF00F00F01F26A19
:10002000A36AA46A000E076EC26AC16AC06A5D6BE9
:100030005C6B5F6B5E6B8B6A949489688994926A3F
:1000400045EC00F08CEC00F0D1EC00F042EC02F05A
:1000500048EC02F07BEC02F0DDEC04F0EFEC03F096
:10006000F7EC02F0416A3CC042F0D08EF28CF28E86
:100070005AEC00F00DEC01F099EC05F08FEC01F07A
:1000800099EC05F0F2B409DAF3D7939C938EA58A24
:10009000A598080EB96E000E7C6E1F0E7B6E650E65
:1000A000BA6EA39A800EA66EA6887A507A507A50BD
:1000B000A38A1200A6B2F5D7A6B4F3D7120009504E
:1000C0007ACFE3FF0B50090A03E10A688990110017
:1000D0000A5006E00950E3500D0A01E10A6A1100D6
:1000E0000950092AE3500D0A05E10B2A0B500308B9
:1000F00001E2898489801100D8CF05F0066E0C508A
:10010000DB500C2A796E0D0A03E10F0601E1A3987A
:10011000065005C0D8FF100011EE80F022EE80F0EE
:10012000086A096A0A6A0C6A0D6A0B6A0F6A120089
:1001300005D8EF6EEF3A02D8EE1212000850E350E5
:10014000082A106E0F0B10AC1200090F1200106E6F
:1001500010380F0B060FD8B2070F2A0F0E6E0D5076
:100160000EC0DBFF0D2A10500F0B060FD8B2070F81
:100170002A0F0E6E0D500EC0DBFF0D2A1200803FBD
:10018000BF07013FBF070227BC010313BC01040FD7
:10019000BC010507BC010603BC010704840008017B
:1001A000BC010F018A8493949386000EF86E010EB1
:1001B000F76E920EF66E800E6F6E6E50800BFDE045
:1001C0000E01F86BF96BFA6BFB6BFC6BFD6B0E01B0
:1001D000E06BE26BE36BE46BE66BE76B080EE16FE1
:1001E000E56F0E01E86BEC6BF06BF46BE96BED6B9C
:1001F000F16BF56B0E010B00F5CF43FE0B00F5CF55
:1002000044FE0B00F5CF45FE0F01708A606A306B2B
:100210006F6A6E50C00BFDE112006F6A60BE04D0C1
:100220000A0E6F6E30AF12000F50090A02E1609E95
:10023000120000EE14F062B61ED0740E65BC720E91
:100240000E6E0D500EC0DBFF0D2A6138E842070B21
:10025000EE6E30090E6E0D500EC0DBFF0D2A6138B8
:10026000E842F80B126E6238E842070B1210EE6E8D
:10027000A7EC00F025D0540E65BC520E0E6E0D504A
:100280000EC0DBFF0D2A6138E8461F0BEE6EA7ECAF
:1002900000F06138E846E00B126E6238E8461C0B4D
:1002A00012126250030B1210EE6EA7EC00F06350B6
:1002B000EE6EA7EC00F06450EE6EA7EC00F0148E2A
:1002C000148C65500F0BEE6E136E30090E6E0D50D0
:1002D0000EC0DBFF0D2A135018E00FEE66F0EE5053
:1002E00036DF132EFCD700EE19F066CFEEFF67CF96
:1002F000EEFF68CFEEFF69CFEEFF6ACFEEFF6BCF68
:10030000EEFF6CCFEEFF6DCFEEFF0D0E0E6E0D50BB
:100310000EC0DBFF0D2A0F2AA388609E12000B502F
:1003200001E11200080E6F6E20A708D0060E6F6E56
:1003300010A704D0040E6F6E00B712000850E350EF
:10034000082A116E540A22E0116E740A0AE0115054
:10035000520A1CE01150720A04E01150530A63E083
:1003600058D0ECDE146E070BE83AE846616E00EEFA
:1003700012F0DEDE1250156EF80BE83AE846611214
:100380001250070BE83AE846626E24D000EE12F0F5
:10039000CFDE1250146E148E1F0BE83AE842616EE5
:1003A00000EE12F0C5DE1250156EE00BE83AE8429E
:1003B000611212501C0BE83AE842626E1250030BB5
:1003C000621262860FEE63F0B3DE166E0FEE64F01B
:1003D000AFDE176E186A656A11B2658CAFDE18E081
:1003E000136E186E65120FEE66F0A2DE132EFDD7A7
:1003F00066CF19F067CF1AF068CF1BF069CF1CF0F9
:100400006ACF1DF06BCF1EF06CCF1FF06DCF20F0C8
:100410006086148C0850E350082A0D0AFAE10B0696
:1004200001E189941200F29E000EF86E000EF76E44
:10043000FA0EF66E0850E350082A0F0BE844E84421
:10044000F626D8B0F72A0F01800E6F6E6E50800B23
:10045000FDE00B00F5CF43FE0B00F5CF44FE0B0093
:10046000F5CF45FE0F01708A606A306B6F6A6E507F
:10047000C00BFDE10F010850E350082A0D0AFBE113
:10048000F28E1200C20ED56E236A080E226E120082
:10049000030EB16E246A256A1200F294214A0ED826
:1004A00006EC04F0A1A203D0A192253E242A222E1C
:1004B00004D0080E226E19EC05F01200232A1F0E3C
:1004C0002316000E23640AD0040E23640CD0080EF9
:1004D000236407D00C0E236408D0120089968992F9
:1004E0001200899612008986120089864450010BF9
:1004F000D8B4898212003F0EC7169F0EC86EC66A16
:10050000C56AC79EC78C94869488280EC6121200AE
:10051000746A756A7F9C7F9EF29E7F847F80550EF1
:100520007E6EAA0E7E6E7F827FB2FED7743EF6D7B5
:10053000753EF4D77F94F28E12007F8E7F9C7F846D
:100540007F88F29E550E7E6EAA0E7E6E7F82000020
:10055000F28E7F9412007F8E7F9C7F847F98F29E24
:10056000550E7E6EAA0E7E6E7F82F28E7F941200F2
:10057000F66EF76A200EF86E1200000EF9DF090021
:10058000F5CF3BF00900F5CF3CF00900F5CF3DF089
:100590000900F5CF3EF00900F5CF3FF00900F5CF97
:1005A00040F00900F5CF43F00900F5CF49F0120003
:1005B000000EDEDFC2DF3BC0F5FF0D003CC0F5FFE3
:1005C0000D003DC0F5FF0D003EC0F5FF0D003FC022
:1005D000F5FF0D0040C0F5FF0D0043C0F5FF0D0015
:1005E00049C0F5FF0D00000EC3DFB5DF1200C5DF07
:1005F000430E3B183A6E3A3A3A423A803A82420EF9
:100600003C18396E3A843CAE3A94399E1200090087
:10061000F5CF2AF02C6A0900F5CF27F008C3EAFFCE
:1006200009C3E9FFEE6A3B0EEE6E030EEE6E2C2A56
:100630002CC0EEFF080EEE6E2B6E0900F5CFEEFF1C
:10064000272E00D02B2EF9D7D1EC05F02A2EEAD791
:10065000EE6A3B0EEE6E3AC0EEFF39C0EEFF050EBD
:10066000EE6E430EEE6E420EEE6E3BC0EEFF3CC0F1
:10067000EEFF26C0EEFF95D2050000040000010247
:100680000001533838000000000043414E427573AA
:10069000746572000000000000000000000000000F
:1006A0000000051C0102000000FF000043414E4213
:1006B000757374657220494400300032353500008E
:1006C000000000000000000000000000051A020207
:1006D0000000271003E85374617274204E720030DA
:1006E0000031303030300000000000000000000019
:1006F000000000000000051D03020000000F0001C3
:100700004CC3A46E6765205338382D427573003092
:100710000031350000000000000000000000000073
:10072000052304020000271003E8533838205374CF
:100730006172740030003130303030000000000051
:1007400000000000000000000000316832683368DB
:100750003668376838682F68306834683568100E36
:10076000006E03EE10F0EE6A002EFDD740D7361C67
:100770003818006E3416341E355000143418356E97
:1007800034140014376E381A311C3318006E2F16CB
:100790002F1E305000142F18306E2F140014326E9C
:1007A000331A1200BDEC02F03DC002F03EC003F06F
:1007B00031C02EF0010E2D6E32C000F006D836C0CA
:1007C0002EF0010E2D6E37C000F0034A022A0050B1
:1007D0002D14D8A4FED8D8902D36F7E312009380BC
:1007E00093929398939A8A928A988A9A456A466ACB
:1007F0004A6A476A200E486E03EE60F0EE68EE68C3
:10080000EE68EE68EE68482EF9D71200080EFA6E10
:1008100047500F0B476E4744F92610D02BD02DD0F0
:100820002FD035D037D039D03BD03DD0000000009C
:100830000000000000000000000012004A6A03EE01
:1008400060F01F0E4A16050E4A02F350E926EECF5D
:100850004BF0EECF4CF0EECF4DF0EECF4EF0EECFB2
:100860004FF04938F00BD8B41200FF0F486E8A8859
:10087000472A12008A82472A12008A92472A1200C7
:10088000020E466E4D8081A04D90472A12008A8A42
:10089000472A12008A9A472A12008A98472A120089
:1008A0008A82472A12008A9246504D1281A04D1A20
:1008B000D8904636D8B006D8480602E1476A1200FA
:1008C000470612008B7A010E466E4D1C4E18456E7F
:1008D0004B164B1E4C5045144B184C6E4B14451484
:1008E0004F6E4E1A26D803EE60F01F0E4A16050E04
:1008F0004A02F350E9264BC0EEFF4CC0EEFF4DC05C
:10090000EEFF4EC0EEFF4FC0EEFF4A2A03EE60F04E
:100910001F0E4A16050E4A02F350E926EECF4BF0A1
:10092000EECF4CF0EECF4DF0EECF4EF0EECF4FF0DD
:100930001200BDEC02F03FC002F040C003F04A38A4
:10094000E8400326D8B0022A4DC02EF0010E2D6ECD
:100950004FC000F0034A022A00502D14D8A4E9EC3D
:1009600004F0D8902D36F6E31200090EFA6E00500E
:10097000070BE8447C0FD8B0FA2AF96E010C020C80
:10098000040C080C100C200C400C800C006E0006AF
:10099000B5EC04F02D6EF80E001600420042004245
:1009A000050E000203EE63F0F350EBCF2EF0E9CF1B
:1009B00000F0FF0E2E1AE9EF04F0516A04EE00F089
:1009C000EACF08F3EACF0AF3E9CF09F3E9CF0BF353
:1009D000120008C3EAFF09C3E9FF000EEE6E230E02
:1009E000EE6E3AC0EEFF39C0EEFF080EEE6E41C06B
:1009F000EEFF42C0EEFF02C0EEFF03C0EEFF2E503E
:100A00002D14D8A4010E010AEE6E010AEE6EEE6AF4
:100A1000EE6A0F0EE92601E3EA2AF00EE916040E4B
:100A2000EA12070EEA16EACF08F3E9CF09F3512AD2
:100A300012005152D8B41200040E0F5CD8B012004C
:100A4000040E6F6E00A701D012000AC3EAFF0BC3A9
:100A5000E9FFEE501F0BE83AE842616EEF50E00B01
:100A6000E83AE8426112EF501C0BE83AE842626E45
:100A7000EE50030B62126286EECF63FFEECF64FF8F
:100A8000EECF65FFEECF66FFEECF67FFEECF68FFDC
:100A9000EECF69FFEECF6AFFEECF6BFFEECF6CFFBC
:100AA000EECF6DFF60860AC3EAFF0BC3E9FF540E69
:100AB0000E6E0D500EC0DBFF0D2AEE50A7EC00F0BD
:100AC000EE50A7EC00F0EE50A7EC00F0EE50A7ECD3
:100AD00000F0EE500F0B07E1300E0E6E0D500EC001
:100AE000DBFF0D2A0DD0506E300F0E6E0D500EC074
:100AF000DBFF0D2AEECFE8FFA7EC00F0502EFAD76F
:100B00000D0E0E6E0D500EC0DBFF0D2A0F2AA388AE
:100B100051060F0EE92601E3EA2AF00EE916040E4B
:100B2000EA12070EEA16EACF0AF3E9CF0BF3120036
:100B3000120014AC1200149C14AE12001552D8B45A
:100B400042D01550010AD8B4E7D01550010AD8B4E4
:100B500064D01550160AD8B4E9D01550220AD8B47A
:100B60000ED11550300AD8B447D11550310AD8B437
:100B700046D11550360AD8B46CD115503A0AD8B4BB
:100B8000B2D112001950430AD8A412001A50420AD6
:100B9000D8A412001B503B18D8A412001C503C18BB
:100BA00012000F0EE92601E3EA2AF00EE916040E00
:100BB000EA12070EEA16EACF08F3E9CF09F3512A41
:100BC000120000EF00F0DEDF11E11D500B0A08E11A
:100BD0001850060A01E12AD01850080A5FE01200F6
:100BE0001850060A03E11D50800AEBE0120008C30A
:100BF000EAFF09C3E9FF000EEE6E010EEE6E3AC089
:100C0000EEFF39C0EEFF1850EE6E000EEE6EEE6E87
:100C1000EE6EEE6EEE6EEE6EC4D71850050AD8A4D6
:100C200012001DC044F0800E441A120008C3EAFFEF
:100C300009C3E9FFEE6A010EEE6E3AC0EEFF39C05D
:100C4000EEFF080EEE6E19C0EEFF1AC0EEFF1BC0DD
:100C5000EEFF1CC0EEFF1DC0EEFF1EC0EEFF1EC06B
:100C6000E8FF020A05E13FC0EEFF40C0EEFF99D762
:100C70001EC0E8FF030A05E1000EEE6E49C0EEFF5C
:100C800090D71EC0E8FF040A05E1000EEE6E43C0D7
:100C9000EEFF87D7FF0EEE6EEE6E83D7010E1E18A5
:100CA00005E11FC03BF020C03CF015D0020E1E181D
:100CB00005E11FC03FF020C040F00DD0030E1E180C
:100CC00003E120C049F007D0040E1E1803E120C044
:100CD00043F001D01200D8EC02F0F7EC02F008C3A8
:100CE000EAFF09C3E9FFEE6A010EEE6E3AC0EEFFBD
:100CF00039C0EEFF070EEE6E19C0EEFF1AC0EEFF10
:100D00001BC0EEFF1CC0EEFF1DC0EEFF1EC0EEFFBD
:100D1000010EEE6E46D7120035DF07E11D500C0ABA
:100D200004E11EC041F01FC042F012001850080A32
:100D300001E0120027DFD8A412001EC000F0030E4D
:100D40000016004608C3EAFF09C3E9FFEE6A170E62
:100D5000EE6E3AC0EEFF39C0EEFF070EEE6E19C020
:100D6000EEFF1AC0EEFF1BC0EEFF1CC0EEFF1FC05F
:100D7000EBFF20C0EBFF010EEE6E13D7120049C04F
:100D8000E8FF0009D8B4120019504118D8A4120085
:100D90001A504218D8A412001850040AD8B412D01D
:100DA0001850070AD8A412001B503F18D8A41200EC
:100DB0001C504018D8A412001F50010AD8A41200D9
:100DC000EFEF03F01BC002F01CC003F04050035EC5
:100DD0003F50D8A03F3C025E0250000AD8A4120047
:100DE00049C0E8FFE83A010FD8900354D8A0120098
:100DF0000350C6EC04F0120018520DE01200185017
:100E0000080AD8A412001F50EE0AD8A412002050DD
:100E1000EE0AD8A4120008C3EAFF09C3E9FFEE6A8C
:100E2000310EEE6E3AC0EEFF39C0EEFF080EEE6EE8
:100E3000430EEE6E420EEE6E3BC0EEFF3CC0EEFF88
:100E4000010EEE6E0F0EEE6E000EEE6E400EEE6EAA
:100E5000A8D607500009D8A4120018520AE018506A
:100E6000050A01E012008EDE03E11D50110A1FE0A9
:100E7000120008C3EAFF09C3E9FFEE6A370EEE6EFF
:100E80003AC0EEFF39C0EEFF080EEE6E430EEE6E76
:100E9000420EEE6E3BC0EEFF3CC0EEFF010EEE6E6A
:100EA0000F0EEE6E000EEE6E400EEE6E7AD6010E56
:100EB000076E08C3EAFF09C3E9FFEE6A010EEE6E92
:100EC0003AC0EEFF39C0EEFF060EEE6E430EEE6E38
:100ED000420EEE6E3BC0EEFF3CC0EEFF800EEE6EAB
:100EE000000EEE6E5ED61850050AD8A412004ADE37
:100EF000D8A412001D50266E000A08E1780EF66E86
:100F0000060EF76E000EF86E07EF03F01D50010A93
:100F100008E1A20EF66E060EF76E000EF86E07EFF1
:100F200003F01D50020A08E1CC0EF66E060EF76EB5
:100F3000000EF86E07EF03F01D50030A08E1F60EED
:100F4000F66E060EF76E000EF86E07EF03F01D50FA
:100F5000040A08E1200EF66E070EF76E000EF86E1A
:100F600007EF03F0120052380F0BF00F556E5526A5
:100F7000E20F566E320F586E52500F0B5626562601
:100F80005826E90F576E5726572653380F0B57260A
:100F9000582657365836581E583653500F0B582679
:100FA0005536070E546E0A0E58265706D8A0D4EFB1
:100FB00007F057265606D8A0D9EF07F05626550653
:100FC000D8A0DEEF07F055265406D8A0E3EF07F0CF
:020FD000000C13
:020000040020DA
:0800000055530000000001014E
:020000040030CA
:040000001412692845
:020005008181F7
:060008000FC00FE00F40E5
:00000001FF
