:020000040000FA
:040000000EEF00F00F
:0400080081EF00F094
:080018009EEF00F00F01F26AF7
:10002000A36AA46AD0B206D0600E00EE00F0EE6AB9
:10003000E82EFDD7C26AC16AC06A5D6B5C6B5F6BFC
:100040005E6B8B6A949489688994926A67EC00F07D
:10005000AEEC00F0F3EC00F061EC02F067EC02F0C3
:10006000A1EC02F060EC05F020EC04F0D0A22BEC47
:1000700004F0F5EC02F000EC03F073EC03F0D08E2A
:10008000F28CF28EAAEC06F0ACEC05F0D0B209D0FE
:10009000319232B03186319432A403D03184F80EDB
:1000A0008916D082A6B27CEC00F0A6B47CEC00F0FD
:1000B0002FEC01F012BC63EC06F00950D8A4B1ECAF
:1000C00001F012BC63EC06F0F2B402DAEBD7939CB9
:1000D000938EA58AA598080EB96E000E7C6E1F0E31
:1000E0007B6E650EBA6EA39A800EA66EA6887A50B5
:1000F0007A507A50A38A1200A6B2F5D7A6B4F3D7E5
:10010000120007507ACFE3FF0950090A03E108689B
:1001100089901100085007E00750E3500D0A02E1F2
:10012000086A898011000750072AE3500D0A05E18B
:10013000092A0950030801E289841100D8CF04F08C
:10014000056E0A50DB500A2A796E0D0A03E10D068E
:1001500001E1A398055004C0D8FF100011EE80F013
:1001600022EE80F0066A076A086A0A6A0B6A096A60
:100170000D6A120005D8EF6EEF3A02D8EE121200A7
:100180000650E350062A0E6E0F0B0EAC1200090F3C
:1001900012000E6E0E380F0B060FD8B2070F2A0F83
:1001A0000C6E0B500CC0DBFF0B2A0E500F0B060F12
:1001B000D8B2070F2A0F0C6E0B500CC0DBFF0B2AB6
:1001C0001200803FBF07013FBF070227BC01031396
:1001D000BC01040FBC010507BC010603BC010704F8
:1001E00084000801BC010F018A8493949386000E59
:1001F000F86E010EF76ED60EF66E800E6F6E6E50B4
:10020000800BFDE00E01F86BF96BFA6BFB6BFC6B7E
:10021000FD6B0E01E06BE26BE36BE46BE66BE76B8F
:10022000080EE16FE56F0E01E86BEC6BF06BF46BA1
:10023000E96BED6BF16BF56B0E010B00F5CF43FE37
:100240000B00F5CF44FE0B00F5CF45FE0F01708A81
:10025000606A306B6F6A6E50C00BFDE112006F6A0E
:1002600060BE04D00A0E6F6E30AF12000D50090A46
:1002700002E1609E120000EE12F062B61ED0740E13
:1002800065BC720E0C6E0B500CC0DBFF0B2A613884
:10029000E842070BEE6E30090C6E0B500CC0DBFF12
:1002A0000B2A6138E842F80B106E6238E842070BFF
:1002B0001010EE6EC9EC00F025D0540E65BC520E45
:1002C0000C6E0B500CC0DBFF0B2A6138E8461F0B8D
:1002D000EE6EC9EC00F06138E846E00B106E623853
:1002E000E8461C0B10126250030B1010EE6EC9ECA6
:1002F00000F06350EE6EC9EC00F06450EE6EC9EC95
:1003000000F0128E128C65500F0BEE6E116E3009DC
:100310000C6E0B500CC0DBFF0B2A115018E00FEED7
:1003200066F0EE5036DF112EFCD700EE17F066CFE8
:10033000EEFF67CFEEFF68CFEEFF69CFEEFF6ACF2B
:10034000EEFF6BCFEEFF6CCFEEFF6DCFEEFF0D0E2D
:100350000C6E0B500CC0DBFF0B2A0D2AA388609E8D
:100360001200080E6F6E20A708D0060E6F6E10A741
:1003700004D0040E6F6E00B712000650E350062A38
:100380000F6E540A22E00F6E740A0AE00F50520AF0
:100390001CE00F50720A04E00F50530A63E058D07B
:1003A000EFDE126E070BE83AE846616E00EE10F0E1
:1003B000E1DE1050136EF80BE83AE8466112105077
:1003C000070BE83AE846626E24D000EE10F0D2DE69
:1003D0001050126E128E1F0BE83AE842616E00EE6A
:1003E00010F0C8DE1050136EE00BE83AE8426112DC
:1003F00010501C0BE83AE842626E1050030B621278
:1004000062860FEE63F0B6DE146E0FEE64F0B2DEBD
:10041000156E166A656A0FB2658CB2DE18E0116E51
:10042000166E65120FEE66F0A5DE112EFDD766CFB3
:1004300017F067CF18F068CF19F069CF1AF06ACFBC
:100440001BF06BCF1CF06CCF1DF06DCF1EF06086E3
:10045000128C0650E350062A0D0AFAE1090601E162
:1004600089941200F29E000EF86E000EF76EFA0EDE
:10047000F66E0650E350062A0F0BE844E844F626D1
:10048000D8B0F72A0F01800E6F6E6E50800BFDE022
:100490000B00F5CF43FE0B00F5CF44FE0B00F5CF6C
:1004A00045FE0F01708A606A306B6F6A6E50C00B38
:1004B000FDE10F010650E350062A0D0AFBE1F28E22
:1004C0001200C20ED56E216A080E206E12001200B4
:1004D000F2941F4A0FD8200E445CD8A077EC04F0A9
:1004E000202E04D020864466ACEF05F0446612004E
:1004F000FEEF04F0212A21500CE0040A18E00C0A57
:1005000012E0040A18E0130AD8A41200FF0E216EAC
:10051000120031A403D03194070E8912899632B6A5
:1005200089808992120031B412008996120031B488
:1005300012008986120031B41200898631A08982A6
:1005400012003F0EC7169F0EC86EC66AC56AC79EC8
:10055000C78C94869488280EC61212001200FF0ED3
:10056000746E1200746E756A7F9E7F9C7F8000009F
:1005700073501200746E756A7F9E7F9C7F800000AE
:100580007350005C11E032B6899032B6216A00C027
:1005900073FFF29E7F84550E7E6EAA0E7E6E7F8262
:1005A0007FB2FED77F94F28E12008C0EF66E110E83
:1005B000F76E000EF86E0900F5CF00F0010E746EB4
:1005C000756A7F9E7F9CF29E7F840900F5CF73FF42
:1005D000550E7E6EAA0E7E6E7F827FB2FED7743E6F
:1005E000002EF3D77F94F29EBAD7010EB2EC02F040
:1005F0004308DBE1020EB2EC02F04208D6E1AFD7CD
:10060000030E746E756A7F9E7F9C7F80000073CF9F
:100610002AF0742A7F80000073CF2BF0742A7F8029
:10062000000073CF2CF0742A7F80000073CF2DF070
:10063000742A7F80000073CF2EF0742A7F80000020
:1006400073CF2FF0742A7F80000073CF30F0742AAC
:100650007F800000735037EC04F0742A7F80000024
:1006600073CF33F0742A7F80000073CF34F0742A84
:100670007F80000073CF32F0742A7F80000073CF38
:1006800042F06DD7030E2AC000F074DF040E2BC0B9
:1006900000F070DF64D70D0E32C000F0FAD70B0EF9
:1006A00033C000F067DF0C0E34C000F0F2D7050E47
:1006B0002CC000F05FDF060E2DC000F0EAD7070E59
:1006C0002EC000F057DF080E2FC000F0E2D70A0E50
:1006D00038C000F0DED7090E30C000F0DAD70E0EB9
:1006E00042C000F0D6D7430E3318296E293A29426A
:1006F00029802982420E3418286E298434AE299428
:10070000289E12000900F5CF23F0256A0900F5CFD5
:1007100022F008C3EAFF09C3E9FFEE6A3B0EEE6E62
:10072000030EEE6E252A25C0EEFF080EEE6E246E37
:100730000900F5CFEEFF225206E0222E04D002C0BF
:10074000EEFF03C0EEFF242EF3D753EC06F0232E6A
:10075000E4D7EE6A3B0EEE6E29C0EEFF28C0EEFF36
:10076000050EEE6E3DEC06F000C0EEFF9CD20500DB
:1007700000040000010200015338380000000000AE
:1007800043414E4275737465720000000000000022
:10079000000000000000000005060102000000FF4C
:1007A000000043414E427573746572204944003025
:1007B000003235350000000000000000000000009D
:1007C0000000050602020000271003E8537461725E
:1007D00074204E72003000313030303000000000A4
:1007E00000000000000000000000000005060302F9
:1007F0000001001000014CC3A46E67652053383817
:100800002D427573003100313600000000000000F9
:10081000000000000000050604020000271003E8A5
:1008200053383820537461727400300031303030E6
:100830003000000000000000000000000000000088
:10084000938093929398939A8A928A988A9A356A17
:10085000396A366A1200200E376E03EE60F0EE68D9
:10086000EE68EE6AEE6AEE6A372EF9D71200386E3D
:100870001008D8B002D0100E386E38501200035055
:100880002F5C02502E580FE23850100D2F50F326D7
:10089000D8B0F42A2E50F4260350F35E0250F45AD6
:1008A00002E3D880010CD890000C02C0F4FF03C012
:1008B000F3FFF352D8B4F406F3062F50F35E2E5034
:1008C000D8A0010FF45EF350070B006E55EC05F055
:1008D000266ED890F432F332F432F332F432F3323B
:1008E00003EE63F0F350050DF350E9261200365085
:1008F00013E0070A31E00F0A32E0090A17E0030AA1
:1009000018E0010A19E0070A1EE0010A1FE0030AC5
:1009100020E0366AA0DF94D7396A3850D8B4120084
:10092000100DF3CF37F08A88362A12008A82362AD1
:1009300012008A92362A1200020E356E3C8081A087
:100940003C90362A12008A8A362A12008A9A362A5F
:1009500012008A98362A12008A82362A12008A9257
:1009600035503C1281A03C1AD8903536D8B006D804
:10097000370602E1366A1200360612008B7A010E43
:10098000356E03EE60F01F0E3916050E3902F35076
:10099000E926EECF3AF0EECF3BF0EECF3FF0EECFD0
:1009A0003DF0EECF3EF03C503D18F36E3A163A1E45
:1009B00032BE09D03B50F3143A183B6E3A14F3148C
:1009C0003E6E3D1A04D03A50F3143E6E3D1A3E502E
:1009D000D8A450D803EE60F01F0E3916050E390268
:1009E000F350E9263AC0EEFF3BC0EEFF3FC0EEFFFA
:1009F0003DC0EEFF3EC0EEFF392A120041664106BF
:100A0000D8A4120003EE60F01F0E4016050E40023F
:100A1000F350E926020EE926EECF3FF0EFCF27F0A4
:100A2000E9063F501DE02EC002F02FC003F0403811
:100A3000E8400326D8B0022A010E266ED890034A59
:100A4000022A26503F14D8B408D042C041F0261CD8
:100A50003F163FC0EFFF6CEF05F0D8902636EFE36E
:100A6000D8943834405C000ED8A44028406E3FC073
:100A7000EFFF12002EC002F02FC003F03938E8401B
:100A80000326D8B0022A3DC027F0010E266E034A85
:100A9000022A3E502614D8A48BEC05F0261C3E16E4
:100AA0003F16D8902636F3E31200070E00160050CA
:100AB000010ED8B41200D890E836002EFDD71200EF
:100AC000446A04EE00F0EACF08F3EACF0AF3E9CF74
:100AD00009F3E9CF0BF3120008C3EAFF09C3E9FFEA
:100AE000000EEE6E230EEE6E29C0EEFF28C0EEFF64
:100AF000080EEE6E2AC0EEFF2BC0EEFF02C0EEFF26
:100B000003C0EEFF27502614D8A4010EEE6EEE6E41
:100B1000EE6AEE6AC8D008C3EAFF09C3E9FF000E17
:100B2000EE6E230EEE6E29C0EEFF28C0EEFF080E1B
:100B3000EE6E2AC0EEFF2BC0EEFF02C0EEFF03C038
:100B4000EEFF27502614D8A4010E010AEE6E010A0A
:100B5000EE6EEE6AEE6AA7D0040E0D5CD8B01200FD
:100B6000040E6F6E00A701D012000AC3EAFF0BC388
:100B7000E9FFEE501F0BE83AE842616EEF50E00BE0
:100B8000E83AE8426112EF501C0BE83AE842626E24
:100B9000EE50030B62126286EECF63FFEECF64FF6E
:100BA000EECF65FFEECF66FFEECF67FFEECF68FFBB
:100BB000EECF69FFEECF6AFFEECF6BFFEECF6CFF9B
:100BC000EECF6DFF60860AC3EAFF0BC3E9FF540E48
:100BD0000C6E0B500CC0DBFF0B2AEE50C9EC00F082
:100BE000EE50C9EC00F0EE50C9EC00F0EE50C9EC4C
:100BF00000F0EE500F0B07E1300E0C6E0B500CC0E6
:100C0000DBFF0B2A0DD0436E300F0C6E0B500CC067
:100C1000DBFF0B2AEECFE8FFC9EC00F0432EFAD73A
:100C20000D0E0C6E0B500CC0DBFF0B2A0D2AA38897
:100C300044060F0EE92601E3EA2AF00EE916040E37
:100C4000EA12070EEA16EACF0AF3E9CF0BF3120015
:100C500012001750182419241A2412001750430A9E
:100C6000D8A412001850420AD8A412001950331800
:100C7000D8A412001A5034181200430EEE6E420E21
:100C8000EE6E33C0EEFF34C0EEFF1200010E01091C
:100C900008C3EAFF09C3E9FFEE6AEE6E29C0EEFF62
:100CA00028C0EEFF12000F0EE92601E3EA2AF00E3B
:100CB000E916040EEA12070EEA16EACF08F3E9CFA6
:100CC00009F3442A1200129C12AE1200135015E0D0
:100CD000010AD8B417D0230AD8B4BBD1120AD8B4A9
:100CE00026D1010AD8B426D1070AD8B43DD10C0ABE
:100CF000D8B460D12C0AD8B4FAD0ABDF03E0AEDFB1
:100D000006E012001B500BE0010A0BE012001B5022
:100D10000B0A0BE0070A0FE08C0A17E01200319073
:100D20001200318032B2318612001650060A2AE0D3
:100D30000E0A70E012001650050AD8B465EF07F0ED
:100D4000020AD8B470EF07F012001650060AD8B4A1
:100D5000FF0012009BDF060EEE6E8FDF800EEE6E40
:100D6000D0A8EE6AD0B8D0CFEEFFD0889CD78EDF67
:100D70001650EE6E000EEE6EEE6EEE6EEE6EEE6ED7
:100D8000EE6E91D783DF080EEE6E17C0EEFF18C02F
:100D9000EEFF19C0EEFF1AC0EEFF1BC0EEFF1CC035
:100DA000EEFF1C50010A12E0030A15E0010A18E0E8
:100DB000070A1AE0010A1DE0030A1FE0010A22E007
:100DC0000F0A24E0FF0EEE6EEE6E6DD72AC0EEFF26
:100DD0002BC0EEFF68D72CC0EEFF2DC0EEFF63D70F
:100DE000EE6A38C0EEFF5FD72EC0EEFF2FC0EEFFD9
:100DF0005AD7EE6A30C0EEFF56D733C0EEFF34C08C
:100E0000EEFF51D7EE6A32C0EEFF4DD7EE6A42C018
:100E1000EEFF49D71C50010A0FE0030A14E0010A53
:100E200019E0070A1DE0010A22E0030A25E0010A91
:100E30002CE00F0A33E012001DC02AF01EC02BF078
:100E400042EC03F030D01DC02CF01EC02DF057EC4A
:100E500003F029D01E5037EC04F067EC03F023D0E8
:100E60001DC02EF01EC02FF05FEC03F01CD01EC082
:100E700030F06BEC03F017D01DC033F01EC034F01F
:100E80004FEC03F073EC03F00ED01EC032F04BECCD
:100E900003F03250030BD8A4318605D01EC042F0B7
:100EA0006FEC03F000D0F2DE070EEE6E17C0EEFF1F
:100EB00018C0EEFF19C0EEFF1AC0EEFF1BC0EEFF18
:100EC0001CC0EEFF010EEE6EEED6E0DE070EEE6EFB
:100ED000D4DE0C0EEE6E2AC0EEFF2BC0EEFFE3D682
:100EE0001CC02AF01DC02BF042EC03F0EED71650C8
:100EF000080A01E01200B2DED8A412001CC000F003
:100F0000030E00160046170EC2DE070EEE6E17C067
:100F1000EEFF18C0EEFF19C0EEFF1AC0EEFF1DC0B5
:100F2000EBFF1EC0EBFF010EEE6EBDD61200165297
:100F30000DE012001650080AD8A412001D50EE0A47
:100F4000D8A412001E50EE0AD8A41200310E9FDE63
:100F5000080EEE6E92DE010EEE6E110EEE6E000EBB
:100F6000EE6E400EEE6E9FD631B2120016520AE0BF
:100F70001650050A01E0120071DE03E11B50110A50
:100F80000FE01200370E83DE080EEE6E76DE010EE5
:100F9000EE6E110EEE6E000EEE6E400EEE6E83D60D
:100FA000318274DE060EEE6E68DE800EEE6E000E8E
:100FB000EE6E79D61650050AD8A412004FDED8A4DA
:100FC00012001B50006E0BE0010A13E0030A1DE043
:100FD000010A27E0070A30E0010A3AE01200026A3B
:100FE000036A6E0EF66E070EF76E000EF86E82EF55
:100FF00003F02AC002F02BC003F0980EF66E070E25
:10100000F76E000EF86E82EF03F02CC002F02DC0D8
:1010100003F0C20EF66E070EF76E000EF86E82EF4A
:1010200003F0026A38C003F0EC0EF66E070EF76E9E
:10103000000EF86E82EF03F02EC002F02FC003F016
:10104000160EF66E080EF76E000EF86E82EF03F0C5
:1010500012003850D8B4120017502A18D8A4120021
:1010600018502B18D8A412001650040AD8B466D011
:10107000030AD8A4120019C002F01AC003F03FEC12
:1010800004F0D8B010D01BC002F01CC003F03FEC3D
:1010900004F0D8A012002EC002F02FC003F0032AE3
:1010A000D8B4022AECD7F4CF00F0F3CF01F055EC1E
:1010B00004F01BC002F01CC003F03FEC04F0D8A009
:1010C00006D0F350015EF450D8A0F428005E012A47
:1010D000D8B4002A0FD01BC002F01CC003F03FECB4
:1010E00004F0D8A012002EC002F02FC003F0032A93
:1010F000D8A0022AE906015003E10052D8B4120038
:101100002650010A0FE1F80E011402E100500AE036
:10111000EF68050EE926080E015E000ED8A0010E4C
:10112000005EE9D72650EF12D890263603E1263626
:10113000050EE9260106D8A00006DDD719501A24AD
:10114000D8B418D019502E5CD8A404D01A502F5CF3
:10115000D8B410D019C002F01AC003F03FEC04F06C
:10116000D8A0120031B606D055EC04F0EF50276E2F
:101170006CEF05F0319603EE62F0D8903834006ED3
:10118000EF68050EE926002EFBD712000E43420041
:0C1190000100000000011055538F6400A6
:020000040030CA
:040000001412692845
:020005008181F7
:060008000FC00FE00F40E5
:00000001FF
