:020000040000FA
:040000000EEF00F00F
:040008005CEF00F0B9
:0800180079EF00F00F01F26A1C
:100020009D6A9E6A000E076EC26AC16AC06A5D6BF5
:100030005C6B5F6B5E6B8B6A9494896A8998926A39
:1000400042EC00F089EC00F0CEEC00F041EC02F064
:1000500047EC02F078EC02F0DAEC04F0ECEC03F0A0
:10006000F4EC02F0D08EF28CF28E57EC00F00AEC39
:1000700001F098EC05F08EEC01F098EC05F0F2B48C
:100080000BDAF3D7949C948E9F8A9F98080EA76EE4
:10009000000E7D6E1F0EAF6E650EAC6E9D9A800ECB
:1000A000AB6EAB88AE50AE50AE509D8A1200ABB274
:1000B000F5D7ABB4F3D712000950AECFE3FF0B5026
:1000C000090A03E10A68898011000A5006E0095014
:1000D000E3500D0A01E10A6A11000950092AE350B0
:1000E0000D0A05E10B2A0B50030801E2898889906B
:1000F0001100D8CF05F0066E0C50DB500C2AAD6E07
:100100000D0A03E10F0601E19D98065005C0D8FFD6
:10011000100011EE80F022EE80F0086A096A0A6A87
:100120000C6A0D6A0B6A0F6A120005D8EF6EEF3A7F
:1001300002D8EE1212000850E350082A106E0F0B7E
:1001400010AC1200090F1200106E10380F0B060FC2
:10015000D8B2070F2A0F0E6E0D500EC0DBFF0D2A0E
:1001600010500F0B060FD8B2070F2A0F0E6E0D504E
:100170000EC0DBFF0D2A1200803FBF07013FBF0703
:100180000227BC010313BC01040FBC010507BC011D
:100190000603BC01070484000801BC010F018A8426
:1001A00093949386000EF86E010EF76E8C0EF66E29
:1001B000800E6F6E6E50800BFDE00E01F86BF96BD8
:1001C000FA6BFB6BFC6BFD6B0E01E06BE26BE36BA0
:1001D000E46BE66BE76B080EE16FE56F0E01E86B11
:1001E000EC6BF06BF46BE96BED6BF16BF56B0E0187
:1001F0000B00F5CF43FE0B00F5CF44FE0B00F5CF0F
:1002000045FE0F01708A606A306B6F6A6E50C00BDA
:10021000FDE112006F6A60BE04D00A0E6F6E30AF4F
:1002200012000F50090A03E18982609E120000EE5D
:1002300014F062B61ED0740E65BC720E0E6E0D50B8
:100240000EC0DBFF0D2A6138E842070BEE6E300965
:100250000E6E0D500EC0DBFF0D2A6138E842F80B20
:10026000126E6238E842070B1210EE6EA4EC00F03A
:1002700025D0540E65BC520E0E6E0D500EC0DBFF25
:100280000D2A6138E8461F0BEE6EA4EC00F06138D1
:10029000E846E00B126E6238E8461C0B1212625000
:1002A000030B1210EE6EA4EC00F06350EE6EA4ECA3
:1002B00000F06450EE6EA4EC00F0148E148C6550C7
:1002C0000F0BEE6E136E30090E6E0D500EC0DBFF7D
:1002D0000D2A135018E00FEE66F0EE5035DF132EA6
:1002E000FCD700EE19F066CFEEFF67CFEEFF68CFC8
:1002F000EEFF69CFEEFF6ACFEEFF6BCFEEFF6CCF64
:10030000EEFF6DCFEEFF0D0E0E6E0D500EC0DBFF3B
:100310000D2A0F2A9D888992609E12000B5001E1E0
:100320001200080E6F6E20A708D0060E6F6E10A781
:1003300004D0040E6F6E00B712000850E350082A74
:10034000116E540A22E0116E740A0AE01150520A2A
:100350001CE01150720A04E01150530A63E058D0B7
:10036000EADE146E070BE83AE846616E00EE12F022
:10037000DCDE1250156EF80BE83AE84661121250B6
:10038000070BE83AE846626E24D000EE12F0CDDEAC
:100390001250146E148E1F0BE83AE842616E00EEA4
:1003A00012F0C3DE1250156EE00BE83AE84261121B
:1003B00012501C0BE83AE842626E1250030B6212B4
:1003C00062860FEE63F0B1DE166E0FEE64F0ADDE06
:1003D000176E186A656A11B2658CADDE18E0136E8F
:1003E000186E65120FEE66F0A0DE132EFDD766CFF5
:1003F00019F067CF1AF068CF1BF069CF1CF06ACFF5
:100400001DF06BCF1EF06CCF1FF06DCF20F060861B
:10041000148C0850E350082A0D0AFAE10B0601E19A
:1004200089981200F29E000EF86E000EF76EFA0E1A
:10043000F66E0850E350082A0F0BE844E844F6260D
:10044000D8B0F72A0F01800E6F6E6E50800BFDE062
:100450000B00F5CF43FE0B00F5CF44FE0B00F5CFAC
:1004600045FE0F01708A606A306B6F6A6E50C00B78
:10047000FDE10F010850E350082A0D0AFBE1F28E5E
:100480001200C20ED56E236A080E226E1200030EF1
:10049000B16E246A256A1200F294214A0ED803EC48
:1004A00004F0A1A203D0A192253E242A222E04D03A
:1004B000080E226E18EC05F01200232A1F0E2316D8
:1004C000000E23640AD0040E23640BD0080E2364AC
:1004D00006D00C0E236407D012008996120089966C
:1004E00012008986120089864250010BD8B412008E
:1004F0003F0EC716270EC86EC66AC56AC79EC78C50
:1005000094869488280EC6121200746A756A7F9CBD
:100510007F9EF29E7F847F80550E7E6EAA0E7E6E39
:100520007F827FB2FED7743EF6D7753EF4D77F94B4
:10053000F28E12007F8E7F9C7F847F88F29E550E04
:100540007E6EAA0E7E6E7F820000F28E7F94120075
:100550007F8E7F9C7F847F98F29E550E7E6EAA0EC2
:100560007E6E7F82F28E7F941200F66EF76A200E06
:10057000F86E1200000EF9DF0900F5CF3BF009001C
:10058000F5CF3CF00900F5CF3DF00900F5CF3EF086
:100590000900F5CF3FF00900F5CF40F00900F5CF95
:1005A00041F00900F5CF47F01200000EDEDFC2DF98
:1005B0003BC0F5FF0D003CC0F5FF0D003DC0F5FF51
:1005C0000D003EC0F5FF0D003FC0F5FF0D0040C01F
:1005D000F5FF0D0041C0F5FF0D0047C0F5FF0D0010
:1005E000000EC3DFB5DF1200C5DF430E3B183A6EC5
:1005F0003A3A3A423A803A82420E3C18396E3A848C
:100600003CAE3A94399E12000900F5CF2AF02C6ACC
:100610000900F5CF27F008C3EAFF09C3E9FFEE6A36
:100620003B0EEE6E030EEE6E2C2A2CC0EEFF080E73
:10063000EE6E2B6E0900F5CFEEFF272E00D02B2E8D
:10064000F9D7CCEC05F02A2EEAD7EE6A3B0EEE6E17
:100650003AC0EEFF39C0EEFF050EEE6E430EEE6EB1
:10066000420EEE6E3BC0EEFF3CC0EEFF26C0EEFF3A
:1006700093D2050000040000010200015338380045
:100680000000000043414E42757374657200000023
:10069000000000000000000000000000051C010236
:1006A000000000FF000043414E42757374657220E4
:1006B00049440030003235350000000000000000E1
:1006C000000000000000051A02020000271003E8E5
:1006D0005374617274204E7200300031303030300B
:1006E000000000000000000000000000000000000A
:1006F000051D03020000000F00014CC3A46E6765D6
:10070000205338382D427573003000313500000019
:1007100000000000000000000000052304020000AB
:10072000271003E853383820537461727400300086
:1007300031303030300000000000000000000000C8
:1007400000000000316832683368366837683868FE
:100750002F68306834683568100E006E03EE10F0B4
:10076000EE6A002EFDD740D7361C3818006E3416BE
:10077000341E355000143418356E34140014376E9E
:10078000381A311C3318006E2F162F1E30500014EB
:100790002F18306E2F140014326E331A1200BAEC78
:1007A00002F03DC002F03EC003F031C02EF0010E59
:1007B0002D6E32C000F006D836C02EF0010E2D6E20
:1007C00037C000F0034A022A00502D14D8A4FED8E6
:1007D000D8902D36F7E312009388939E9492949CC0
:1007E0008A9E8B928B9C436A446A486A456A200EB3
:1007F000466E03EE60F0EE68EE68EE68EE68EE6856
:10080000462EF9D71200080EFA6E45500F0B456EB2
:100810004544F92610D02BD02DD02FD035D037D04D
:1008200039D03BD03DD000000000000000000000A7
:10083000000000001200486A03EE60F01F0E481628
:10084000050E4802F350E926EECF49F0EECF4AF00C
:10085000EECF4BF0EECF4CF0EECF4DF04738F00B33
:10086000D8B41200FF0F466E8B8C452A12008A8284
:10087000452A12008A92452A1200020E446E4B80CD
:1008800081A84B90452A12008B8E452A12008B9E20
:10089000452A12008B9C452A12008A82452A1200A2
:1008A0008A9244504B1281A84B1AD8904436D8B043
:1008B00006D8460602E1456A1200450612008B7A08
:1008C000010E446E4B1C4C18436E4916491E4A508B
:1008D000431449184A6E491443144D6E4C1A26D8D5
:1008E00003EE60F01F0E4816050E4802F350E9268D
:1008F00049C0EEFF4AC0EEFF4BC0EEFF4CC0EEFF1A
:100900004DC0EEFF482A03EE60F01F0E4816050E9C
:100910004802F350E926EECF49F0EECF4AF0EECF91
:100920004BF0EECF4CF0EECF4DF01200BAEC02F0EF
:100930003FC002F040C003F04838E8400326D8B07A
:10094000022A4BC02EF0010E2D6E4DC000F0034A5E
:10095000022A00502D14D8A4E6EC04F0D8902D36CD
:10096000F6E31200090EFA6E0050070BE844760F0A
:10097000D8B0FA2AF96E010C020C040C080C100C09
:10098000200C400C800C006E0006B2EC04F02D6EC2
:10099000F80E0016004200420042050E000203EE6F
:1009A00063F0F350EBCF2EF0E9CF00F0FF0E2E1ADC
:1009B000E6EF04F04F6A04EE00F0EACF08F3EACF66
:1009C0000AF3E9CF09F3E9CF0BF3120008C3EAFFFA
:1009D00009C3E9FF000EEE6E230EEE6E3AC0EEFF85
:1009E00039C0EEFF080EEE6E3B50AB0FEE6E3C5082
:1009F000AD0FEE6E02C0EEFF03C0EEFF2E502D14C1
:100A0000D8A4010E010AEE6E010AEE6EEE6AEE6ADD
:100A10000F0EE92601E3EA2AF00EE916040EEA12A7
:100A2000070EEA16EACF08F3E9CF09F34F2A1200BE
:100A30004F52D8B41200040E0F5CD8B01200040E4E
:100A40006F6E00A701D012000AC3EAFF0BC3E9FFD3
:100A5000EE501F0BE83AE842616EEF50E00BE83AC7
:100A6000E8426112EF501C0BE83AE842626EEE5029
:100A7000030B62126286EECF63FFEECF64FFEECF10
:100A800065FFEECF66FFEECF67FFEECF68FFEECFDC
:100A900069FFEECF6AFFEECF6BFFEECF6CFFEECFBC
:100AA0006DFF60860AC3EAFF0BC3E9FF540E0E6EAA
:100AB0000D500EC0DBFF0D2AEE50A4EC00F0EE50FE
:100AC000A4EC00F0EE50A4EC00F0EE50A4EC00F02A
:100AD000EE500F0B07E1300E0E6E0D500EC0DBFF17
:100AE0000D2A0DD04E6E300F0E6E0D500EC0DBFF76
:100AF0000D2AEECFE8FFA4EC00F04E2EFAD70D0E33
:100B00000E6E0D500EC0DBFF0D2A0F2A9D884F067A
:100B10000F0EE92601E3EA2AF00EE916040EEA12A6
:100B2000070EEA16EACF0AF3E9CF0BF31200120020
:100B300014AC1200149C14AE12001552D8B43ED05E
:100B40001550010AD8B464D01550160AD8B4E3D0B1
:100B50001550220AD8B408D11550300AD8B439D16A
:100B60001550310AD8B438D11550360AD8B45ED1F0
:100B700015503A0AD8B4A4D112001950430AD8A487
:100B800012001A50420AD8A412001B503B18D8A4D5
:100B900012001C503C1812000F0EE92601E3EA2A4D
:100BA000F00EE916040EEA12070EEA16EACF08F371
:100BB000E9CF09F34F2A120000EF00F0DEDF11E168
:100BC0001D500B0A08E11850060A01E12AD01850FE
:100BD000080A5FE012001850060A03E11D50800A5F
:100BE000EBE0120008C3EAFF09C3E9FF000EEE6E56
:100BF000010EEE6E3AC0EEFF39C0EEFF1850EE6EF9
:100C0000000EEE6EEE6EEE6EEE6EEE6EEE6EC4D713
:100C10001850050AD8A412001DC042F0800E421AD6
:100C2000120008C3EAFF09C3E9FFEE6A010EEE6E87
:100C30003AC0EEFF39C0EEFF080EEE6E19C0EEFFAF
:100C40001AC0EEFF1BC0EEFF1CC0EEFF1DC0EEFF82
:100C50001EC0EEFF1EC0E8FF020A05E13FC0EEFF26
:100C600040C0EEFF99D71EC0E8FF030A05E1000E61
:100C7000EE6E47C0EEFF90D71EC0E8FF040A05E104
:100C8000000EEE6E41C0EEFF87D7FF0EEE6EEE6EE9
:100C900083D7010E1E1809E11FC03BF0550E3B26FD
:100CA00020C03CF0530E3C2615D0020E1E1805E164
:100CB0001FC03FF020C040F00DD0030E1E1803E10E
:100CC00020C047F007D0040E1E1803E120C041F0F9
:100CD00001D01200D5EC02F0F4EC02F008C3EAFFF8
:100CE00009C3E9FFEE6A010EEE6E3AC0EEFF39C0AD
:100CF000EEFF070EEE6E19C0EEFF1AC0EEFF1BC02E
:100D0000EEFF1CC0EEFF1DC0EEFF1EC0EEFF010E89
:100D1000EE6E42D712001850080A01E012002DDFD3
:100D2000D8A412001EC000F0030E0016004608C32F
:100D3000EAFF09C3E9FFEE6A170EEE6E3AC0EEFF56
:100D400039C0EEFF070EEE6E19C0EEFF1AC0EEFFBF
:100D50001BC0EEFF1CC0EEFF1FC0EBFF20C0EBFF6F
:100D6000010EEE6E19D7120047C0E8FF0009D8B493
:100D700012001850040AD8B412D01850070AD8A488
:100D800012001B503F18D8A412001C504018D8A4C1
:100D900012001F50010AD8A41200ECEF03F01BC090
:100DA00002F01CC003F04050035E3F50D8A03F3C0F
:100DB000025E0250000AD8A4120047C0E8FFE83AD9
:100DC000010FD8900354D8A012000350C3EC04F0D4
:100DD000120018520DE012001850080AD8A4120090
:100DE0001F50EE0AD8A412002050EE0AD8A4120018
:100DF00008C3EAFF09C3E9FFEE6A310EEE6E3AC09E
:100E0000EEFF39C0EEFF080EEE6E430EEE6E420EA0
:100E1000EE6E3BC0EEFF3CC0EEFF010EEE6E0E0E1E
:100E2000EE6E000EEE6E400EEE6EB6D60750000966
:100E3000D8A4120018520AE01850050A01E0120066
:100E40009CDE03E11D50110A1FE0120008C3EAFFF7
:100E500009C3E9FFEE6A370EEE6E3AC0EEFF39C005
:100E6000EEFF080EEE6E430EEE6E420EEE6E3BC0CF
:100E7000EEFF3CC0EEFF010EEE6E0E0EEE6E000EAB
:100E8000EE6E400EEE6E88D6010E076E08C3EAFFC6
:100E900009C3E9FFEE6A010EEE6E3AC0EEFF39C0FB
:100EA000EEFF060EEE6E430EEE6E420EEE6E3BC091
:100EB000EEFF3CC0EEFF800EEE6E000EEE6E6CD6C6
:100EC0001850050AD8A4120058DED8A412001D50EC
:100ED000266E000A08E1720EF66E060EF76E000E20
:100EE000F86E04EF03F01D50010A08E19C0EF66E47
:100EF000060EF76E000EF86E04EF03F01D50020AA6
:100F000008E1C60EF66E060EF76E000EF86E04EFE0
:100F100003F01D50030A08E1F00EF66E060EF76EA0
:100F2000000EF86E04EF03F01D50040A08E11A0EDB
:100F3000F66E070EF76E000EF86E04EF03F0120067
:100F400050380F0BF00F536E5326E20F546E320FD2
:100F5000566E50500F0B542654265626E90F556EE8
:100F60005526552651380F0B5526562655365636DA
:100F7000561E563651500F0B56265336070E526EDC
:100F80000A0E56265506D8A0C1EF07F0552654067E
:100F9000D8A0C6EF07F054265306D8A0CBEF07F031
:0C0FA00053265206D8A0D0EF07F0000C3A
:020000040030CA
:040000001412692845
:020005008181F7
:060008000FC00FE00F40E5
:00000001FF
