:020000040000FA
:10000000000083120313850104308600403087000E
:1000100083163A308500CA3086008030870006306B
:100020009F006400C4308100831290101016901657
:10003000A001A0152015E4236D23851C4028A014E1
:100040008023B921851C4028A0148023E921851C28
:100050004028A0148023E2200511B923851C4028E4
:10006000A0148023FF1BE423851C4028CF22851C7D
:100070004028A0148023B921851C402812221D2865
:1000800043201B242D2805156C200511003A031967
:100090004D28023A03196128080024082102031C94
:1000A000483E463C031C0800210884002A088000C2
:1000B0002108773C031D5F283030A1000800A10A09
:1000C0000800A010B92185186928B923A01D62284D
:1000D00008002524FF01080006300624A010AA010C
:1000E0000830AF00A0132010A50185182514023098
:1000F0000B240030851801302506031991280130A2
:100100000B24003085180130A500FF0A8030251827
:10011000FF050E307F060319023425180134000054
:10012000952801300B240000852814300624133054
:100130000624A5018518251402300B2400308518EB
:10014000013025060319B72801300B24003085182B
:100150000130A500250CAA0CFF0A80302518FF05E8
:100160000E307F0603190234AF0B9528BB280130EF
:100170000B240000AA2813300624133006240000A4
:100180000000A5018518251402300B2400308518C5
:10019000013025060319DE2801300B2400308518B4
:1001A0000130A500FF0A80302518FF050E307F06BC
:1001B0000319DD28251800340134023401300B24E2
:1001C0000000D228A01E0800A0190800A01F0800E7
:1001D000201F08002208A5002808A600851C08008A
:1001E000A0130515220884000008AB008721003AFF
:1001F000031D342900002208FF3C031902290000D6
:10020000A20A0529A030A2000000A80BF228A01223
:10021000250884000008A800210884002808851EFD
:100220001A2980002108773C031D19293030A100CC
:100230001A29A10A0130AD0225088400003080008F
:10024000A60B2B298618080048302D02031C061126
:100250000618432908002508FF3C03193129A50A7F
:100260000829A030A5000829051481012508A2004D
:100270002608A800B9218A300102031C3A2920105F
:10028000051025240800AB01E530782110307821D5
:100290005030782150307821013078210030F91B1E
:1002A0000238FA1B0438FB1B0838782116307821F5
:1002B00079087F3978217A087F3978217B087F395E
:1002C00078210030FC1B0238FD1B0438FE1B083867
:1002D0007821303078217C087F3978217D087F397A
:1002E00078217E087F3978212B09782106100800B3
:1002F000A500AB0621088400250880002108773C72
:10030000031D85293030A1000800A10A080005144A
:100310001A300624851801341930062400000830EC
:10032000AF002B18A12900000514193006248518E8
:1003300001341930062400000310AB0CAF0B9129D7
:10034000AE29051019300624851C01341930062405
:1003500000000310AB0CAF0B9129AE290000000088
:10036000051017300624851C0134000016300624C1
:10037000003460302D020319D7298C1ED329981818
:10038000DC291819E129AD0A4C302D020318061595
:10039000230884001A0880002308FF3C031DDA2983
:1003A000A030A3000800000004300B240800053032
:1003B0000B240800A30A08001812181603300B2497
:1003C00008001A080319FF1701300B240000E82960
:1003D0000800861CEC29102A0000201E042A83161F
:1003E000981C0B2A0000831224088400000899003E
:1003F00000308000A90BFD2920122408773C031D42
:10040000092A3030A400080004300B24000000004A
:100410000800A40A0800831203300B24000008001F
:100420000000042A86180800A01A080022082302E7
:10043000031C603E0319372AA700AD008618242A42
:1004400048302D02031C061122088400851C080078
:10045000801B3B2A80010408FF3C0319312A840ACF
:10046000332AA0308400A70B262A2308A200AD015E
:10047000861C061108000408A200001B472A801AE7
:10048000442A0230A8005E2A0430A8005E2A801A9E
:100490004C2A0630A8005E2A2708013C03180800F1
:1004A0000408FF3C0319852A840A0008A800023CBE
:1004B0000318732A2808203C031C732A851C080093
:1004C0002808AF00A022003A03190800023A0319D5
:1004D000732A2808AF00AF038822003A0319752A4F
:1004E000023A03190800B8220800851C0800C72238
:1004F000851E822A24082102031C483E2807283C26
:10050000031C0800A016AC010800A0308400552A86
:10051000220884000008AB0000000408FF3C031917
:100520009D2A840A0008AB06851C0234AF0B8D2A75
:100530002B08FF3A031900340134A0308400922ABA
:10054000220884000000A42A2308040203190034AE
:100550000408FF3C0319B02A840AAF0BB32A013404
:10056000A0308400AD2A801B0234851C0034A42AEC
:100570000030A80022088400003080000408FF3CFE
:100580000319C42AA20A0800A030A2000800220809
:1005900084000008813A031D080006140800201A90
:1005A000080024082102031C483E03190800A70084
:1005B00024088400851C0800801BEC2A80010408A4
:1005C000773C0319E52A840AE72A30308400A70B18
:1005D000DA2A2108A40008000408A400001BF82A55
:1005E000801AF52A0230A9000F2B0430A9000F2B26
:1005F000801AFD2A0630A9000F2B2708013C03189A
:1006000008000408773C03192A2B840A0008A90073
:10061000023C0318242B2908203C031C242B851C96
:1006200008002908AF004523003A03190800023AE0
:100630000319242B2908AF00AF032D23003A031917
:10064000262B023A031908005D230800851C0800C8
:100650002016080030308400062B2408840000088F
:100660000000A5000408773C0319422B840A000807
:10067000A506851C0234AF0B322B2508FF3A03195F
:100680000034013430308400372B2408840000000B
:10069000492B21080402031900340408773C03198C
:1006A000552B840AAF0B582B013430308400522B69
:1006B000801B0234851C0034492B0030A90024081B
:1006C0008400003080002B240408773C03196A2B37
:1006D000A40A08003030A4000800981783161812E6
:1006E0009816181583124B30051E7A2B4030851949
:1006F0007A2B1430831699008312181606110800FD
:10070000A01B8F2B201C8B2BBA300102031C08006E
:100710002010A01708008101201320140800201BBE
:100720000800201CB02B03308A002C082C078207FD
:1007300000000000BA30AA2BA730AA2B9430AA2BB5
:100740008130AA2B6E30AA2B5B30AA2B4930AA2B02
:100750003630AA2B0102031C0800201020170800C5
:10076000A01EAC012C08083A031DAC0A810120141C
:100770000800A019CA2BA0181010101CC52B0C1CA7
:1007800008001010A015201508008E018F010C1014
:1007900010140800201DCE2BA01C08002019D92BF6
:1007A0000C1C0800A60BE22B101010169016A011BE
:1007B000080020110530A600E423101290168E01C7
:1007C0008F0110140C100800F901FA01FB01FC0163
:1007D000FD01FE01FF01AD012012A0120610AC01C7
:1007E000A030A300A200840080010408FF3C03198C
:1007F000FB2B840AF42B3030A100A400840080017C
:100800000408773C03190800840AFF2B0B2400001E
:10081000B921E9210800AE00AE0B0C2C0800851DA3
:100820000F2C05300B248519132C05300B240511D2
:100830000800FF3EFF3E1230A500000005300B24EB
:10084000851C0800A50B1E2C0800FE0F0800FD0FDC
:100850000800FC0A0800FB0F0800FA0F0800F90A5C
:0208600008008E
:084000000100060003000000AE
:02400E00F23F7F
:00000001FF